:020000040800F2
:10000000000002205D2D010839A100083BA1000875
:100010003DA100083FA1000841A100080000000028
:10002000000000000000000000000000C10B0108FB
:1000300043A1000800000000610C010845A1000870
:10004000AD2D0108AD2D0108AD2D0108AD2D010824
:10005000AD2D0108AD2D01085BA10008AD2D0108F3
:10006000AD2D010865A100086FA10008AD2D0108A4
:10007000AD2D0108AD2D0108AD2D0108AD2D0108F4
:10008000AD2D0108AD2D0108AD2D0108AD2D0108E4
:1000900079A10008AD2D0108AD2D010889A1000846
:1000A000AD2D0108AD2D0108AD2D0108AD2D0108C4
:1000B000AD2D0108AD2D0108AD2D0108AD2D0108B4
:1000C000AD2D0108AD2D0108AD2D0108AD2D0108A4
:1000D000AD2D0108AD2D0108AD2D0108914A000894
:1000E000AD2D0108AD2D0108AD2D0108AD2D010884
:1000F000AD2D0108AD2D0108AD2D0108115C0008E2
:10010000AD2D0108AD2D0108AD2D0108AD2D010863
:10011000AD2D0108AD2D0108AD2D0108AD2D010853
:10012000AD2D010895A10008F1190008A5A100084E
:10013000AD2D0108AD2D0108AD2D0108AD2D010833
:10014000B5A10008AD2D0108AD2D0108C5A100081D
:10015000AD2D0108D5A10008E5A1000885480008DB
:10016000AD2D0108AD2D0108AD2D0108AD2D010803
:10017000AD2D0108AD2D0108AD2D010800000000D6
:08018000AD2D0108AD2D0108B1
:1001C00010B5054C237833B9044B13B10448AFF391
:1001D00000800123237010BD100C002000000000DF
:1001E0000095010808B5034B1BB103490348AFF361
:1001F000008008BD00000000140C002000950108DC
:1002000053B94AB9002908BF00281CBF4FF0FF317D
:100210004FF0FF3000F074B9ADF1080C6DE904CE79
:1002200000F006F8DDF804E0DDE9022304B07047D1
:100230002DE9F047089D04468E46002B4DD18A4299
:10024000944669D9B2FA82F252B101FA02F3C2F1CC
:10025000200120FA01F10CFA02FC41EA030E94405D
:100260004FEA1C48210CBEFBF8F61FFA8CF708FB7E
:1002700016E341EA034306FB07F199420AD91CEB56
:10028000030306F1FF3080F01F81994240F21C8188
:10029000023E63445B1AA4B2B3FBF8F008FB1033D0
:1002A00044EA034400FB07F7A7420AD91CEB040405
:1002B00000F1FF3380F00A81A74240F207816444D5
:1002C000023840EA0640E41B00261DB1D44000235A
:1002D000C5E900433146BDE8F0878B4209D9002DBE
:1002E00000F0EF800026C5E9000130463146BDE848
:1002F000F087B3FA83F6002E4AD18B4202D38242B2
:1003000000F2F980841A61EB030301209E46002D60
:10031000E0D0C5E9004EDDE702B9FFDEB2FA82F2B5
:10032000002A40F09280A1EB0C014FEA1C471FFA13
:100330008CFE0126200CB1FBF7F307FB131140EAFA
:1003400001410EFB03F0884208D91CEB010103F1C7
:10035000FF3802D2884200F2CB804346091AA4B289
:10036000B1FBF7F007FB101144EA01440EFB00FE5D
:10037000A64508D91CEB040400F1FF3102D2A645C2
:1003800000F2BB800846A4EB0E0440EA03409CE761
:10039000C6F12007B34022FA07FC4CEA030C20FA0E
:1003A00007F401FA06F31C43F9404FEA1C4900FA2E
:1003B00006F3B1FBF9F8200C1FFA8CFE09FB1811AB
:1003C00040EA014108FB0EF0884202FA06F20BD91E
:1003D0001CEB010108F1FF3A80F08880884240F26E
:1003E0008580A8F102086144091AA4B2B1FBF9F0B2
:1003F00009FB101144EA014100FB0EFE8E4508D9AD
:100400001CEB010100F1FF346CD28E456AD9023831
:10041000614440EA0840A0FB0294A1EB0E01A14216
:10042000C846A64656D353D05DB1B3EB080261EB84
:100430000E0101FA07F722FA06F3F1401F43C5E95E
:10044000007100263146BDE8F087C2F12003D84094
:100450000CFA02FC21FA03F3914001434FEA1C47D6
:100460001FFA8CFEB3FBF7F007FB10360B0C43EAC8
:10047000064300FB0EF69E4204FA02F408D91CEB78
:10048000030300F1FF382FD29E422DD90238634476
:100490009B1B89B2B3FBF7F607FB163341EA034116
:1004A00006FB0EF38B4208D91CEB010106F1FF3865
:1004B00016D28B4214D9023E6144C91A46EA00465C
:1004C00038E72E46284605E70646E3E61846F8E6EE
:1004D0004B45A9D2B9EB020864EB0C0E0138A3E737
:1004E0004646EAE7204694E74046D1E7D0467BE718
:1004F000023B614432E7304609E76444023842E790
:10050000704700BF70B4840746D04C1E002941D00C
:10051000D5B2034602E0611EE4B30C4603F8015B6A
:100520009907F8D1032C2ED9D5B245EA05250F2C11
:1005300045EA054519D9264603F11001103E0F2E54
:1005400041F8105C41F80C5C41F8085C41F8045C2F
:1005500001F11001F2D8A4F1100121F00F0104F013
:100560000F041031032C0B440DD91E4621460439CB
:10057000032946F8045BFAD8211F21F00301043156
:100580000B4404F003042CB1D2B21C4403F8012B39
:10059000A342FBD170BC70470C460346C2E7000083
:1005A000844641EA000313F003036DD1403A41D37E
:1005B00051F8043B40F8043B51F8043B40F8043B3D
:1005C00051F8043B40F8043B51F8043B40F8043B2D
:1005D00051F8043B40F8043B51F8043B40F8043B1D
:1005E00051F8043B40F8043B51F8043B40F8043B0D
:1005F00051F8043B40F8043B51F8043B40F8043BFD
:1006000051F8043B40F8043B51F8043B40F8043BEC
:1006100051F8043B40F8043B51F8043B40F8043BDC
:1006200051F8043B40F8043B51F8043B40F8043BCC
:10063000403ABDD2303211D351F8043B40F8043B6C
:1006400051F8043B40F8043B51F8043B40F8043BAC
:1006500051F8043B40F8043B103AEDD20C3205D37C
:1006600051F8043B40F8043B043AF9D2043208D074
:10067000D2071CBF11F8013B00F8013B01D30B88E6
:1006800003806046704700BF082A13D38B078DD0C4
:1006900010F003038AD0C3F10403D21ADB071CBF96
:1006A00011F8013B00F8013B80D331F8023B20F800
:1006B000023B7BE7043AD9D3013A11F8013B00F839
:1006C000013BF9D20B7803704B7843708B788370C1
:1006D00060467047000000000000000000000000BD
:1006E000000000000000000000000000000000000A
:1006F00000000000000000000000000000000000FA
:1007000090F800F06DE9024520F007016FF0000C51
:1007100010F0070491F820F040F049804FF00004F9
:100720006FF00700D1E9002391F840F000F10800D4
:1007300082FA4CF2A4FA8CF283FA4CF3A2FA8CF30C
:100740004BBBD1E9022382FA4CF200F10800A4FA73
:100750008CF283FA4CF3A2FA8CF3E3B9D1E90423C7
:1007600082FA4CF200F10800A4FA8CF283FA4CF3FE
:10077000A2FA8CF37BB9D1E9062301F1200182FAB8
:100780004CF200F10800A4FA8CF283FA4CF3A2FABE
:100790008CF3002BC6D0002A04BF04301A4612BACC
:1007A000B2FA82F2FDE8024500EBD2007047D1E9CF
:1007B000002304F00305C4F100004FEAC50514F05E
:1007C000040F91F840F00CFA05F562EA05021CBF2F
:1007D00063EA050362464FF00004A9E70000000049
:1007E00001F0FF01102A2BDB10F0070F08D010F8E2
:1007F000013B013A8B422DD010F0070F42B3F6D1E6
:10080000F0B441EA012141EA014122F007047FF0FE
:1008100000070023F0E80256083C85EA010586EA55
:10082000010685FA47F5A3FA87F586FA47F6A5FA91
:1008300087F68EB9EED1F0BC01F0FF0102F007029D
:1008400032B110F8013B013A83EA010313B1F8D148
:100850000020704701387047002D06BF3546033829
:10086000073815F0010F07D1013015F4807F02BF62
:10087000013015F4C03F0130F0BC0138704700BFB3
:1008800081F0004102E000BF83F0004330B54FEA41
:1008900041044FEA430594EA050F08BF90EA020FAE
:1008A0001FBF54EA000C55EA020C7FEA645C7FEA41
:1008B000655C00F0E2804FEA5454D4EB5555B8BF64
:1008C0006D420CDD2C4480EA020281EA030382EAD5
:1008D000000083EA010180EA020281EA0303362D67
:1008E00088BF30BD11F0004F4FEA01314FF4801C3A
:1008F0004CEA113102D0404261EB410113F0004F4C
:100900004FEA03334CEA133302D0524263EB430302
:1009100094EA050F00F0A780A4F10104D5F1200EA0
:100920000DDB02FA0EFC22FA05F2801841F10001FB
:1009300003FA0EF2801843FA05F359410EE0A5F1CF
:1009400020050EF1200E012A03FA0EFC28BF4CF000
:10095000020C43FA05F3C01851EBE37101F00045B6
:1009600007D54FF0000EDCF1000C7EEB00006EEBC3
:100970000101B1F5801F1BD3B1F5001F0CD349084D
:100980005FEA30004FEA3C0C04F101044FEA4452A4
:1009900012F5800F80F09A80BCF1004F08BF5FEA2B
:1009A000500C50F1000041EB045141EA050130BD0B
:1009B0005FEA4C0C404141EB0101013C28BFB1F51D
:1009C000801FE9D291F0000F04BF01460020B1FA68
:1009D00081F308BF2033A3F10B03B3F120020CDA3B
:1009E0000C3208DD02F1140CC2F10C0201FA0CF019
:1009F00021FA02F10CE002F11402D8BFC2F1200C7E
:100A000001FA02F120FA0CFCDCBF41EA0C01904033
:100A1000E41AA2BF01EB0451294330BD6FEA04047C
:100A20001F3C1CDA0C340EDC04F11404C4F1200267
:100A300020FA04F001FA02F340EA030021FA04F379
:100A400045EA030130BDC4F10C04C4F1200220FAD0
:100A500002F001FA04F340EA0300294630BD21FA0E
:100A600004F0294630BD94F0000F83F4801306BFD4
:100A700081F480110134013D4EE77FEA645C18BFC8
:100A80007FEA655C29D094EA050F08BF90EA020F5F
:100A900005D054EA000C04BF1946104630BD91EA57
:100AA000030F1EBF0021002030BD5FEA545C05D15A
:100AB0004000494128BF41F0004130BD14F5800499
:100AC0003CBF01F5801130BD01F0004545F0FE410D
:100AD00041F470014FF0000030BD7FEA645C1ABF42
:100AE000194610467FEA655C1CBF0B46024650EA79
:100AF000013406BF52EA033591EA030F41F40021A5
:100B000030BD00BF90F0000F04BF0021704730B52A
:100B10004FF4806404F132044FF000054FF00001FF
:100B200050E700BF90F0000F04BF0021704730B5C0
:100B30004FF4806404F1320410F0004548BF404295
:100B40004FF000013EE700BF42004FEAE2014FEAEA
:100B500031014FEA02701FBF12F07F4393F07F4FC5
:100B600081F06051704732F07F4208BF704793F0C8
:100B70007F4F04BF41F40021704730B54FF46074DB
:100B800001F0004521F000411CE700BF50EA0102DE
:100B900008BF704730B54FF000050AE050EA010287
:100BA00008BF704730B511F0004502D5404261EBF7
:100BB00041014FF4806404F132045FEA915C3FF438
:100BC000D8AE4FF003025FEADC0C18BF03325FEAD5
:100BD000DC0C18BF033202EBDC02C2F1200300FA86
:100BE00003FC20FA02F001FA03FE40EA0E0021FAAB
:100BF00002F11444BDE600BF70B54FF0FF0C4CF499
:100C0000E06C1CEA11541DBF1CEA135594EA0C0F4A
:100C100095EA0C0F00F0DEF82C4481EA030621EA85
:100C20004C5123EA4C5350EA013518BF52EA0335C0
:100C300041F4801143F4801338D0A0FB02CE4FF072
:100C40000005E1FB02E506F00042E0FB03E54FF0A2
:100C50000006E1FB03569CF0000F18BF4EF0010E9A
:100C6000A4F1FF04B6F5007F64F5407404D25FEA96
:100C70004E0E6D4146EB060642EAC62141EA555149
:100C80004FEAC52040EA5E504FEACE2EB4F1FD0C8B
:100C900088BFBCF5E06F1ED8BEF1004F08BF5FEA09
:100CA000500E50F1000041EB045170BD06F00046BB
:100CB00046EA010140EA020081EA0301B4EB5C0468
:100CC000C2BFD4EB0C0541EA045170BD41F4801160
:100CD0004FF0000E013C00F3AB8014F1360FDEBF85
:100CE000002001F0004170BDC4F10004203C35DA61
:100CF0000C341BDC04F11404C4F1200500FA05F3E4
:100D000020FA04F001FA05F240EA020001F0004284
:100D100021F0004110EBD37021FA04F642EB0601FA
:100D20005EEA430E08BF20EAD37070BDC4F10C0424
:100D3000C4F1200500FA04F320FA05F001FA04F2E8
:100D400040EA020001F0004110EBD37041F10001D4
:100D50005EEA430E08BF20EAD37070BDC4F12005DF
:100D600000FA05F24EEA020E20FA04F301FA05F247
:100D700043EA020321FA04F001F0004121FA04F2EF
:100D800020EA020000EBD3705EEA430E08BF20EABF
:100D9000D37070BD94F0000F0FD101F000464000F9
:100DA00041EB010111F4801F08BF013CF7D041EA7B
:100DB000060195F0000F18BF704703F0004652007F
:100DC00043EB030313F4801F08BF013DF7D043EA50
:100DD0000603704794EA0C0F0CEA135518BF95EA06
:100DE0000C0F0CD050EA410618BF52EA4306D1D18D
:100DF00081EA030101F000414FF0000070BD50EAAC
:100E0000410606BF1046194652EA430619D094EA35
:100E10000C0F02D150EA013613D195EA0C0F05D11F
:100E200052EA03361CBF104619460AD181EA030173
:100E300001F0004141F0FE4141F470014FF000002B
:100E400070BD41F0FE4141F4780170BD70B54FF0C6
:100E5000FF0C4CF4E06C1CEA11541DBF1CEA135546
:100E600094EA0C0F95EA0C0F00F0A7F8A4EB050428
:100E700081EA030E52EA03354FEA013100F088801F
:100E80004FEA03334FF0805545EA131343EA1263E8
:100E90004FEA022245EA111545EA10654FEA00269D
:100EA0000EF000419D4208BF964244F1FD0404F556
:100EB000407402D25B084FEA3202B61A65EB0305B2
:100EC0005B084FEA32024FF480104FF4002CB6EB6F
:100ED000020E75EB030E22BFB61A754640EA0C00EF
:100EE0005B084FEA3202B6EB020E75EB030E22BF2F
:100EF000B61A754640EA5C005B084FEA3202B6EB70
:100F0000020E75EB030E22BFB61A754640EA9C002E
:100F10005B084FEA3202B6EB020E75EB030E22BFFE
:100F2000B61A754640EADC0055EA060E18D04FEABC
:100F3000051545EA16754FEA06164FEAC30343EA5C
:100F400052734FEAC2025FEA1C1CC0D111F4801F29
:100F50000BD141EA00014FF000004FF0004CB6E722
:100F600011F4801F04BF01430020B4F1FD0C88BFC1
:100F7000BCF5E06F3FF6AFAEB5EB030C04BFB6EBCC
:100F8000020C5FEA500C50F1000041EB045170BDBF
:100F90000EF0004E4EEA113114EB5C04C2BFD4EBEC
:100FA0000C0541EA045170BD41F480114FF0000E70
:100FB000013C90E645EA060E8DE60CEA135594EAEC
:100FC0000C0F08BF95EA0C0F3FF43BAF94EA0C0FEF
:100FD0000AD150EA01347FF434AF95EA0C0F7FF464
:100FE00025AF104619462CE795EA0C0F06D152EAB8
:100FF00003353FF4FDAE1046194622E750EA41069C
:1010000018BF52EA43067FF4C5AE50EA41047FF4AC
:101010000DAF52EA43057FF4EBAE12E74FF0FF3C11
:1010200006E000BF4FF0010C02E000BF4FF0010CE2
:101030004DF804CD4FEA410C7FEA6C5C4FEA430C5B
:1010400018BF7FEA6C5C1BD001B050EA410C0CBFAA
:1010500052EA430C91EA030F02BF90EA020F00200C
:10106000704710F1000F91EA030F58BF994208BF73
:1010700090422CBFD8176FEAE37040F00100704730
:101080004FEA410C7FEA6C5C02D150EA013C07D187
:101090004FEA430C7FEA6C5CD6D152EA033CD3D0D2
:1010A0005DF8040B704700BF8446104662468C46CC
:1010B0001946634600E000BF01B5FFF7B7FF0028FF
:1010C00048BF10F1000F01BD4DF808EDFFF7F4FF28
:1010D0000CBF012000205DF808FB00BF4DF808EDB3
:1010E000FFF7EAFF34BF012000205DF808FB00BFD6
:1010F0004DF808EDFFF7E0FF94BF012000205DF8F8
:1011000008FB00BF4DF808EDFFF7CEFF94BF0120AC
:1011100000205DF808FB00BF4DF808EDFFF7C4FFA5
:1011200034BF012000205DF808FB00BF4FEA410CEE
:101130007FEA6C5C02D150EA013C0AD14FEA430CD1
:101140007FEA6C5C02D152EA033C02D14FF000000E
:1011500070474FF0010070474FEA410212F500124C
:1011600015D211D56FF47873B3EB625212D94FEAEE
:10117000C12343F0004343EA505311F0004F23FAD8
:1011800002F018BF404270474FF00000704750EA2D
:10119000013005D111F0004008BF6FF000407047EA
:1011A0004FF00000704700BF10B58AB001AB03AA32
:1011B00000210AF0E7F90398A0F20123062B01D9D8
:1011C0000AB010BDC0B2431EDBB2194A13701949F0
:1011D00003EB830C4FEA4C0201EB020C8C5EACF883
:1011E00008409DF804409DF805E04EEA042E21F8E1
:1011F00002E09DF80620120212B29DF807E042EAD2
:101200000E02ACF802209DF80820120212B29DF8DE
:1012100009E042EA0E02ACF804209DF80AC003EB94
:1012200083035A00114481F806C002F04FF8C7E763
:101230006C0C0020700C002010B582B08E469446D5
:101240000F4940F2FF120A6000228A60CA60082239
:101250000A610C4A0412147050704FEA2E209070EC
:1012600082F803E04FEA2C20107182F805C01812B2
:101270009071D37101AB04480AF006F902B010BDB9
:10128000540C00204C0C00205026002000B583B0E8
:101290000C494FF4E0630B6000238B60CB600822A5
:1012A0000A61094A137053709370D37013715371AC
:1012B0009371D37101AB05480AF0E6F803B05DF80D
:1012C00004FB00BF340C00202C0C0020282600203A
:1012D00010B582B08E4694460F494FF400720A60F2
:1012E00000228A60CA6008220A610C4A0412147043
:1012F00050704FEA2E20907082F803E04FEA2C20C5
:10130000107182F805C018129071D37101AB0448B6
:101310000AF0BAF802B010BD340C00202C0C0020EA
:101320002826002000487047980C0020004870478D
:10133000A20C002000487047AC0C002000F0030015
:1013400000EB8000014B03EB40007047700C002065
:1013500030B5039D4FF0000C71E0D3ED057A0CEB36
:101360004C0E394C04EB8E0494ED007A67EE877ACC
:1013700093ED067AD4ED016A27EE267A77EE877A26
:1013800093ED077AD4ED026A27EE267A77EE877A14
:101390002E4C04EB8C0494ED007A00EB8C0477EE79
:1013A000877AC4ED007AD3ED017A294C04EB8E04E0
:1013B00094ED007A67EE877A93ED027AD4ED016AB4
:1013C00027EE267A77EE877A93ED037AD4ED026AD8
:1013D00027EE267A77EE877A1E4C04EB8C0494ED88
:1013E000007A01EB8C0477EE877AC4ED007AD5EDB4
:1013F000017A194C04EB8E0E9EED007A67EE877A27
:1014000095ED027ADEED016A27EE267A77EE877A8D
:1014100095ED037ADEED026A27EE267A77EE877A7B
:101420000E4C04EB8C0494ED007A02EB8C0477EE06
:10143000877AC4ED007A0CF1010C5FFA8CFCBCF1E8
:10144000020F8AD930BD00BF4C000020700D002073
:101450001C0000202C0D002070000020D80D002062
:1014600010B52DED028BB0EE408A214B1B7813B3E3
:1014700001F034F800EE900A1E4CF8EEE00AB0EEEF
:10148000480A204606F032FED4ED087AF5EEC07A1E
:10149000F1EE10FA0CD4174BD3ED087AFCEEE77A94
:1014A00017EE903A98B204F0F3FCBDEC028B10BD3D
:1014B00000222262EFE701F011F807EE900AF8EE41
:1014C000E77AF4EEC87AF1EE10FA0CD50A4A1378EE
:1014D0000133DBB21370C82B05D9054B01221A70FA
:1014E000044B064A9A6241F2873004F0D1FCDCE7F3
:1014F000640D0020800D0020E50D002000401C45FB
:1015000010B5EFF311844FF0500383F31188BFF34C
:101510006F8FBFF34F8F4E4B1B7813F0010F17D017
:101520004C4B9B6C1B681B6813F0010F10D1494B8F
:10153000DB6C1B681B6813F0010F09D1464B1B784D
:1015400013F0020F04D1454B1B7813F0020F3CD06F
:10155000414B1B7813F0010F17D03E4B9B6C1B685F
:101560001B6813F0010F10D13A4BDB6C1B681B6832
:1015700013F0010F09D1364B1B7813F0020F04D181
:10158000364B1B7813F0020F35D0344B1B7813F019
:10159000010F17D02F4B9B6C1B681B6813F0010FBA
:1015A00010D12C4BDB6C1B681B6813F0010F09D1A9
:1015B000274B1B7813F0020F04D1274B1B7813F035
:1015C000020F2ED084F3118810BD214B1A7802F03F
:1015D000FE021A701A7842F002021A7000220121EB
:1015E0001F480AF0B0FE08221E491F4804F032FDD1
:1015F00084F31188E8E7184B1A7802F0FE021A709B
:101600001A7842F002021A700022102117480AF0DC
:101610009AFE09221649174804F01CFD84F311882C
:10162000D2E70E4B1A7802F0FE021A701A7842F0D6
:1016300002021A70002210210C480AF084FE0422D3
:101640000D490E4804F006FD84F31188BCE700BF85
:101650007C0D0020A42F00203D0D00203C0D00201B
:1016600000040240680D00204400002000000240F9
:10167000FC0C002010000020380D0020400000204D
:1016800000B583B007200FF0F7F902E064200FF0F7
:10169000F3F907F056F90028F8D102E064200FF0C2
:1016A000EBF907F0B7FC0028F8D1804D05F11002E6
:1016B000291D05F1140007F0F1F97D4E7D4C7E4B9C
:1016C00000932B46324621467C48FFF741FEDFED72
:1016D0007C0A9FED7C0A7C4A00217C4806F0EDFCE8
:1016E000324621467A4817F025FF22687948026081
:1016F00079490A60794B1A60626842604A605A60B0
:10170000A26882608A609A60002010F0D3FA10F01C
:1017100013FC734B186073481023C3610CF048FF2F
:10172000002840F0988008226F49704804F008FCB7
:101730006F4B01221A704FF0FF31012010F0E6FDCF
:101740000128F8D16B4B1B7813F0080F40F086800E
:10175000694B1B7813F0040F40F08A80674B1B78AD
:1017600013F0040F40F09180514E524C534D524BA8
:1017700000934E4B324621462846FFF7E9FD564B73
:10178000D3ED006A5549C1ED006A524A92ED007AE4
:1017900083ED007A9FED5A5A27EE057ADFED595A0C
:1017A00066EEA56A37EE267AD4ED007A9FED566A8A
:1017B00067EE867A37EE277A82ED007AD3ED016AFA
:1017C000C1ED016A92ED017A83ED017A27EE057A87
:1017D00066EEA56A37EE267AD4ED017A67EE867A50
:1017E00037EE277A82ED017A93ED027A81ED027A63
:1017F000D2ED027AC3ED027A67EE857A27EE257A7A
:1018000077EE877A94ED027A27EE067A77EE877A7A
:10181000C2ED027A2E4C334629469FED3C0A204603
:1018200017F0D6FF3A4901F108030A1D204618F0C7
:10183000D1FA384A137803F001031370002B3FF4F8
:101840007AAF1346127802F0FE021A701A7842F04C
:1018500002021A706FE708F059FA64E7254A137814
:1018600003F0F70313702C492C4807F0E5F86FE7F5
:10187000214A137803F0FB0313700C4901F1200295
:101880000431274807F090F868E71C4A137803F002
:10189000FB031370054C04F11001224807F06AF8AD
:1018A00094ED040AFFF7DCFD5EE700BF400D002069
:1018B000DC0C0020B80C0020C80D0020D00C00204B
:1018C0000080894500A08C4574A50108800D00208A
:1018D000E80C0020200D0020140D0020080D002031
:1018E000F80C0020A42F0020680D002044000020E8
:1018F0007D0D00207C0D00203D0D00203C0D0020C2
:101900005AF8F63F5D896EBFD5A9183B6F12833A2E
:10191000C40C0020E40D0020540D0020690D0020AF
:10192000FE0C00203A0D002000487047C40C002037
:1019300000487047D00C002010B5102806D0202891
:1019400018D0082825D001282CD010BD092001F07E
:10195000BDFC204A137843F0010313701E4A13782C
:1019600043F0010313701D4B1B78002BEDD0FFF7E4
:10197000C7FDEAE7082001F0A9FC194A137843F0F3
:1019800001031370154B1B78002BDED0FFF7B8FD59
:10199000DBE70A2001F09AFC124A137843F00103B6
:1019A0001370D2E710F048FC0128CED00E4C21462F
:1019B0000E4B186810F0E6FC2368002BC5D04FF0E2
:1019C000E0234FF08052C3F8042DBFF34F8FBFF3D5
:1019D0006F8FBAE73D0D00203C0D00207D0D0020EB
:1019E0007C0D0020E40D0020E80D0020F80C002004
:1019F00008B5AD4BDB6C1B68AC4A934240F29D804E
:101A0000583A5268AA498B4231D001F580618B4225
:101A100078D0A1F568718B4276D001F580618B4258
:101A200074D0A1F589618B4272D001F580618B423F
:101A300071D0A1F568718B4270D001F580618B4245
:101A40006FD0A1F589618B426ED001F580618B4228
:101A50006DD0A1F568718B426CD001F580618B422D
:101A600002D04FF0006103E04FF4001100E02021AC
:101A70000A4214BF01220022002A00F0A4818B4AEE
:101A8000934240F2BC81A2F58962934200F07181D9
:101A900002F58062934200F09781A2F5687293424A
:101AA00000F0948102F58062934200F09181A2F5EA
:101AB0008962934200F08E8102F58062934200F0C9
:101AC0008C81A2F56872934200F08A8102F58062EF
:101AD000934200F08881A2F58962934200F08681EA
:101AE00002F58062934200F08481A2F5687293420D
:101AF00000F0828102F58062934200F037814FF05E
:101B0000006237E12021B3E72021B1E72021AFE7D0
:101B10004FF40061ACE74FF40061A9E74FF40061B6
:101B2000A6E74FF40061A3E74FF40011A0E74FF4DC
:101B300000119DE74FF400119AE75E4A934258D98D
:101B400002F5527212685A498B4231D001F5806118
:101B50008B4233D0A1F568718B4231D001F58061A1
:101B60008B422FD0A1F589618B422DD001F5806188
:101B70008B422CD0A1F568718B422BD001F580618E
:101B80008B422AD0A1F589618B4229D001F5806171
:101B90008B4228D0A1F568718B4227D001F5806176
:101BA0008B4202D04FF0006103E04FF4001100E0DF
:101BB00020210A4214BF012200225DE72021F8E71C
:101BC0002021F6E72021F4E74FF40061F1E74FF41C
:101BD0000061EEE74FF40061EBE74FF40061E8E7E6
:101BE0004FF40011E5E74FF40011E2E74FF4001164
:101BF000DFE7314A934261D9583A52682C498B4207
:101C000031D001F580618B4233D0A1F568718B42F0
:101C100031D001F580618B422FD0A1F589618B42D3
:101C20002DD001F580618B422CD0A1F568718B42DB
:101C30002BD001F580618B422AD0A1F589618B42BE
:101C400029D001F580618B4228D0A1F568718B42C3
:101C500027D001F580618B4202D04FF0006103E094
:101C60004FF4001100E020210A4214BF012200229B
:101C700002E72021F8E72021F6E72021F4E74FF4DE
:101C80000061F1E74FF40061EEE74FF40061EBE72C
:101C90004FF40061E8E74FF40011E5E74FF400115D
:101CA000E2E74FF40011DFE7A42F00205864024060
:101CB00010600240B860024058600240A74A1268B3
:101CC000A7498B4231D001F580618B4233D0A1F519
:101CD00068718B4231D001F580618B422FD0A1F524
:101CE00089618B422DD001F580618B422CD0A1F50A
:101CF00068718B422BD001F580618B422AD0A1F50F
:101D000089618B4229D001F580618B4228D0A1F5F1
:101D100068718B4227D001F580618B4202D04FF071
:101D2000006103E04FF4001100E020210A4214BFDB
:101D300001220022A0E62021F8E72021F6E7202159
:101D4000F4E74FF40061F1E74FF40061EEE74FF480
:101D50000061EBE74FF40061E8E74FF40011E5E7BD
:101D60004FF40011E2E74FF40011DFE74FF40012E7
:101D700000E020227B4BDA607B4B1B7813F0020FD4
:101D800040F05281794B1B7813F0020F40F05B81D9
:101D9000774B1B7813F0020F40F06481FFF7B0FB24
:101DA000714B1B7813F0040F0DD06F4B1A7802F0B3
:101DB000FB021A701A7842F008021A706D4A136911
:101DC00043F00103136108BD2022D3E72022D1E7AD
:101DD0002022CFE74FF40062CCE74FF40062C9E75E
:101DE0004FF40062C6E74FF40062C3E74FF40012FD
:101DF000C0E74FF40012BDE74FF40012BAE75E4AA5
:101E0000934253D9A83A934231D002F5806293426B
:101E100031D0A2F5687293422FD002F580629342CE
:101E20002DD0A2F5896293422BD002F580629342B5
:101E30002AD0A2F56872934229D002F580629342BB
:101E400028D0A2F58962934227D002F5806293429E
:101E500026D0A2F56872934225D002F580629342A3
:101E600002D04FF0006203E04FF4001200E02022A5
:101E70003C4B9A6080E72022FAE72022F8E72022F4
:101E8000F6E74FF40062F3E74FF40062F0E74FF437
:101E90000062EDE74FF40062EAE74FF40012E7E773
:101EA0004FF40012E4E74FF40012E1E7334A9342A3
:101EB00066D9483A934231D002F58062934231D0DC
:101EC000A2F5687293422FD002F5806293422DD022
:101ED000A2F5896293422BD002F5806293422AD008
:101EE000A2F56872934229D002F58062934228D00D
:101EF000A2F58962934227D002F58062934226D0F0
:101F0000A2F56872934225D002F58062934202D016
:101F10004FF0006203E04FF4001200E020220F4B6C
:101F2000DA6029E72022FAE72022F8E72022F6E704
:101F30004FF40062F3E74FF40062F0E74FF4006201
:101F4000EDE74FF40062EAE74FF40012E7E74FF4E1
:101F50000012E4E74FF40012E1E700BF0060024026
:101F600010600240006402407C0D00203D0D002006
:101F70003C0D0020003C0140B86002405860024027
:101F8000404A934231D002F58062934231D0A2F5AB
:101F9000687293422FD002F5806293422DD0A2F551
:101FA000896293422BD002F5806293422AD0A2F537
:101FB0006872934229D002F58062934228D0A2F53C
:101FC0008962934227D002F58062934226D0A2F51F
:101FD0006872934225D002F58062934202D04FF09E
:101FE000006203E04FF4001200E02022264B9A60CA
:101FF000C2E62022FAE72022F8E72022F6E74FF493
:102000000062F3E74FF40062F0E74FF40062EDE79F
:102010004FF40062EAE74FF40012E7E74FF40012D2
:10202000E4E74FF40012E1E7184B1A7802F0FD02E2
:102030001A701A7842F004021A70012211461448EC
:102040000AF081F99EE6134B1A7802F0FD021A702D
:102050001A7842F004021A70012210210E480AF088
:1020600072F995E60D4B1A7802F0FD021A701A7893
:1020700042F004021A700122102107480AF063F9A5
:102080008CE600BF10600240006002407C0D002022
:10209000000402403D0D0020000002403C0D0020E5
:1020A0009E4B00221A7002E001339C4A13709B4B36
:1020B0001B78042B10D803EB430203EB8201984AF0
:1020C0000A441279D209EFD00023964A1380964A27
:1020D0001380964A1370704700B583B0934B1B78FA
:1020E0002BB9914A1288B2F5FA6F00F2A180022B47
:1020F00000F0A980032B00F0B980042B00F0DA80F7
:102100008B4B1B68B3F9002012F5167F12DAB3F976
:10211000021011F5167F0DDAB3F90410B1F5167F30
:1021200008DDB3F9061011F5167F03DA997A022952
:1021300000F0D480B2F5167F12DDB3F90210B1F5CC
:10214000167F0DDDB3F9041011F5167F08DAB3F927
:102150000610B1F5167F03DD997A022900F0CC80D4
:10216000B2F5167F12DDB3F9021011F5167F0DDA04
:10217000B3F9041011F5167F08DAB3F9061011F55A
:10218000167F03DA997A022900F0DA8012F5167FB9
:1021900012DAB3F90220B2F5167F0DDDB3F904208F
:1021A000B2F5167F08DDB3F90620B2F5167F03DD20
:1021B0009A7A022A00F0D5805B4B00221A800FF039
:1021C00073FD5C4B18605C4B1B68C21A44F62061BF
:1021D0008A4200F2D78042F210718A4205D923B1B7
:1021E000524A1278002A40F0D380984205D023B199
:1021F0004E4B1B78002B40F0D1804C4B1B781BB111
:1022000048490A8801320A80464A1288B2F5C87FD6
:1022100003D913B1434A00211180424A1288C82AC7
:1022200040F2B380002B00F0B08003F0C9FAACE0BC
:102230000FF03AFD404B18603C4B01221A703A4BAC
:1022400000221A805CE7384A1288B2F5FA6F7FF6EE
:1022500051AF0023354A1370334A1380304A537C00
:1022600043F08003537403F0ABFA49E72E4A128817
:10227000B2F5FA6F7FF641AF00232C4A13702A4A59
:102280001380274A937F43F08003937703F052FA39
:10229000FDEEC07ACDED017A9DF804300A335BB2D1
:1022A000264AD3702D2B02DD13462D22DA7003F05F
:1022B00087FA25E71C4B1B88B3F5FA6F7FF620AF32
:1022C00000231A4A1370184A1380FEF7DFFFFEF747
:1022D000DDFFFEF7DBFF03F073FA11E7D97A02297D
:1022E0007FF428AF1149097800297FF423AF0E4A03
:1022F00013880133138062E7D97A02297FF430AF63
:102300000A49097800293FF42BAF074A13880133A3
:102310001380064B02221A7051E700BF040F002001
:10232000080E0020040E0020280F0020200F00209F
:102330004C0E0020500E0020240F0020FC0E002028
:10234000D97A02297FF422AF1749097800293FF48E
:102350001DAF164A138801331380134B03221A70E2
:102360002DE7DB7A022B7FF427AF0F4B1B78002B76
:102370003FF422AF0D4A1388013313800A4B042225
:102380001A701CE7084B00221A7003B05DF804FBBA
:1023900044F61F611F2003F00BFA2EE742F2107182
:1023A0005F2003F005FA28E7200F0020280F002007
:1023B0002DE9F8434FF000094C4620E0174F04EB9D
:1023C000440504EB850507EB050898F8042002F0A6
:1023D0007F02134E9200D8F8051006EB0900FEF7B5
:1023E000DFF898F8043003F07F0309EB83039BB216
:1023F0007A59F25004331FFA83F90134E4B2042C01
:10240000DCD9084C0121204603F063FA1E2204495E
:10241000204603F0EBFABDE8F88300BF080E002069
:10242000580E002000000A0808B502F0FDFA254BFE
:10243000186040E0244A137801331370224B1B7854
:10244000042B30D803EB430203EB82011F4A0A44FA
:102450001279D209EED01D4A0A44D2F80920002A86
:10246000E8D001211A4850F8230090470028E1D015
:10247000154B1B78174803EB4302811810F802C074
:10248000124803EB8203C21800F803C04B78537064
:102490008B7893705523D37013796FF3C71313712F
:1024A000FFF786FFC6E701200EF0E6FA00200FF0E6
:1024B000B7FE094B1860FFF7F3FD034B00221A70BB
:1024C000BCE700BF4C0E0020050F0020080E0020C6
:1024D00090A5010880A50108540E0020014B93F936
:1024E00003007047FC0E002030B129B122B11BB1AE
:1024F000002303600B601360704730B129B122B133
:102500001BB1002303600B6013607047844630B337
:1025100029B322B31BB31868B0F9020000EB8000A6
:10252000400007EE900AF8EEE77ACCED007A1868E2
:10253000B0F900006FF0090C0CFB00F007EE900AF8
:10254000F8EEE77AC1ED007A1B68B3F904300CFBB2
:1025500003F307EE903AF8EEE77AC2ED007A70479F
:10256000B0B138B515461C4689B182B17CB122465E
:1025700000F0DCFC2368B3F9043007EE903AF8EE83
:10258000E77A9FED047A67EE877AC5ED007A38BD69
:10259000704700BF0AD723BC002855D038B5154670
:1025A0001C46002935D0002A33D0002C31D02246D9
:1025B00000F0BCFC23689B8A13F0200F09D0234A4B
:1025C00012784AB9214A01211170214A0021116073
:1025D00002E01E4A0021117013F00F0F1AD01D4B9C
:1025E0001D4A1A60194B1B78C3B91C4B00221A6094
:1025F000174BD3ED007A9FED1A7AF4EEC77AF1EE1D
:1026000010FA03DD77EEC77AC3ED007A134B1B682F
:102610002B6038BD0F4B134A1A60E3E70C4C94ED66
:10262000000A10F0C5FB0B4BD3ED007A20EE270A11
:102630000A4B83ED000AD4ED007A9FED0B7A77EE1A
:10264000877AC4ED007AD3E7704700BF300F0020CF
:10265000340F0020940000207CD9A03E2C0F0020D5
:10266000DB0FC9403333333F7C59444400B338B5A2
:1026700015461C46D9B1D2B1CCB1224600F056FC69
:1026800094ED830A2368B3F9043007EE903AF8EE2C
:10269000E77A9FED087A67EE877A9FED071ADFEDFC
:1026A000070A30EE670A05F0E3FC85ED000A38BD45
:1026B000704700BFBD370636DB0F4940DB0F49C00E
:1026C000002839D010B5044603689B7A032B07D045
:1026D000022B14D0012B06D1184B02221A7002E0F3
:1026E000164B04221A7001F07BF910B1134B012232
:1026F0001A70124B1B7833B90323237410BD0F4B90
:1027000001221A70EFE7012B0AD0022B0BD0032B0A
:102710000CD0042B0DD0052BF0D103232374EDE74F
:1027200002232374EAE700232374E7E701232374D9
:10273000E4E702232374E1E7704700BF2A0F00207B
:1027400048B3844639B332B32BB310B5124804787A
:102750006CB1012C0FD0022C11D0032C13D0042CFF
:1027600015D0052C06D16046FFF7D0FE02E060468A
:10277000FFF7BAFE10BD6046FFF7BFFEFAE76046FE
:10278000FFF70AFFF6E76046FFF770FFF2E76046E3
:10279000FFF7E6FEEEE770472A0F002030B583B062
:1027A000044600230193009301F080FF05460B20AF
:1027B00000F080FD002849D1022D4DD00C2D4ED0C7
:1027C00015B9DFED416A43E0694601A801F060FFF9
:1027D000DDED007A9FED3D7AF4EEC77AF1EE10FA66
:1027E00012D5B1EE047AF4EEC77AF1EE10FA08DDF4
:1027F0009FED367AC7EE876ADFED357A66EEA76A17
:1028000026E0DFED346AF7E7DDED017A9FED327AFD
:10281000F4EEC77AF1EE10FA24DD9FED307AF4EE93
:10282000C77AF1EE10FA0ED577EE677A9FED2A7A25
:10283000C7EE876ADFED2A7A66EEA76ADFED247AB3
:1028400076EEA76A04E0DFED276AF3E7DFED1E6AA4
:1028500000239FED247A14E0DFED1B6AF8E7DFED3B
:102860001A6AF5E7DFED206AF2E703EBC30204EB37
:10287000C202D2ED217AF0EEE77A37EE277A013301
:10288000DBB2032BF1D9F4EEC76AF1EE10FA19D5D9
:10289000C6EE877A94ED217A27EE277A84ED217AA5
:1028A00094ED337A27EE277A84ED337A94ED457AE6
:1028B00027EE277A84ED457A94ED577A67EE277AEA
:1028C000C4ED577A03B030BD00007A47000048429B
:1028D00000007A46CDCCCC3D000020420000A04252
:1028E00000409C460000000000A00C47034690B149
:1028F000417C027C91420ED021B11AB90021C0F86E
:10290000081207E0012901D0012A05D0022901D0CF
:10291000022A06D05A747047D3F82012C3F80C125A
:10292000F8E7D3F82012C3F80C12F3E7B1EE407ABF
:1029300037EE607ADFED0F7A61EE277A37EE277A8D
:1029400080ED007A30EE607A77EE877AC0ED017A1A
:1029500070EE207A9FED087A21EE071A77EE817AE1
:10296000C0ED027A70EEC00A31EE201A80ED031A33
:10297000704700BFEB5138BEAF4761BE18B108B514
:10298000FFF79EFE08BD7047002800F0828010B55A
:102990002DED028B0446002322E003EB830204EBBF
:1029A00082025169B1F9021007EE901AF8EEE77A47
:1029B0009FED387A67EE877AC2ED077A03EBC302A0
:1029C00004EBC202D2ED257A9FED337A67EE877A67
:1029D00003EB830204EB8202C2ED067A0133DBB221
:1029E000032BDAD994ED0C5AD4ED077A35EE677AD9
:1029F000D4ED115A37EE257A94ED166A37EE467A01
:102A0000F5EE006A27EE267A84ED7B7AF1EE677A9E
:102A100077EEC57A35EEA77A36EE077A27EE267A74
:102A200084ED7C7A77EEE57A77EEC67A67EEA67A61
:102A3000DFED1A6A87EEA67A84ED7D7AE36893ED7E
:102A4000000A6368D3ED2E7ADFED158A9FED158AB3
:102A5000B0EE681AF0EE480A30EE670A05F008FB9F
:102A600084ED880AE36893ED010AA368D3ED2E7A1A
:102A7000B0EE681AF0EE480A30EE670A05F0F8FA90
:102A800084ED890AE3689B68C4F82832BDEC028BA8
:102A900010BD70470A01DA390000FA43CDCC4C3E34
:102AA000DB0F4940DB0F49C000285CD038B52DED65
:102AB000028B05460323037401F0B6FF2860FEF77E
:102AC00033FFE86001F024FB686001F025FBA8609B
:102AD000002417E02046FEF731FC04EB840305EBED
:102AE0008303586104EBC400C00060302844DFED6C
:102AF0001E0A9FED1E0A1E4A0021043005F0DDFA71
:102B00000134E4B2032CE5D9DFED1A0AB1EE080A6C
:102B1000194A002105F5C27005F0CFFA9FED178A1A
:102B20001749B0EE480A05F5E67005F058FA154960
:102B3000B0EE480A05F5EE7005F051FA4FF080430B
:102B4000C5F810324FF04043C5F814324FF07F53B0
:102B5000C5F818320C4BC5F81C322846FFF714FF95
:102B6000BDEC028B38BD70470000FA4400007A4685
:102B7000B8A50108CDCC4C3EACA501086F12033BB3
:102B8000A4A50108A8A501080000C0BF002800F006
:102B9000C98010B52DED028B84B004460023039349
:102BA00002930193034601AA02A903A8FFF7C8FDF7
:102BB000237CABB1012B66D0022B00F09B80032B52
:102BC0005DD1039BC4F8F831029BC4F8FC31019B32
:102BD000C4F800320023C4F8D031C4F8E0314EE02C
:102BE000636893ED2E0AB1EE400A10F0E1F8B0EE02
:102BF000408A636893ED2E0AB1EE400A10F026F980
:102C0000DDED036A26EE807ADDED027A27EE886A32
:102C100037EE067A84ED7E7A28EE668A67EE807A51
:102C200038EE278A84ED7F8A9FED3F1ADFED3F0A59
:102C30009DED010A05F01CFAF0EE400A84ED820ACF
:102C4000636893ED2E0A04F5C27005F04FFAB1EEF9
:102C5000400A84ED800A94ED841AD4ED850A94ED3F
:102C60007E0A05F0F5F984ED7E0A94ED861AD4ED1E
:102C7000870A94ED7F0A05F0EBF984ED7F0A04B032
:102C8000BDEC028B10BDDFED288A9FED288AB0EEE7
:102C9000681AF0EE480A9DED010A05F0E9F984EDA5
:102CA000830AD4ED887AB0EE681AF0EE480A30EE66
:102CB000670A05F0DDF9F0EE400A9FED1D0A04F504
:102CC000C27005F013FA84ED800A94ED841AD4EDF5
:102CD000850A9DED030A05F0BBF984ED7E0A94EDAB
:102CE000861AD4ED870A9DED020A05F0B1F984ED4C
:102CF0007F0AC4E7019BC4F8003294ED841AD4ED36
:102D0000850A9DED030A05F0A3F984ED7E0A94ED92
:102D1000861AD4ED870A9DED020A05F099F984ED33
:102D20007F0AACE7704700BFDB0F4940DB0F49C0AB
:102D30000000000030B585B00546002300930193E4
:102D400002930393684695ED801AD5ED7F0A95EDC1
:102D50007E0AFFF7EBFD2B7C032B16D000239FEDA3
:102D60003D7A16E004AA02EB830252ED047AFDEEEE
:102D7000E77A03EB830205EB820217EE901A918447
:102D80000133DBB2032BEDD961E00023FAE7013315
:102D9000DBB2032B14D804AA02EB830252ED047AAF
:102DA00003EB830205EB8202C2ED087AF0EEE77ACC
:102DB000B4EEE77AF1EE10FAE9D5B0EE677AE6E71D
:102DC000F1EE007AB4EEE77AF1EE10FA11DDC7EE1B
:102DD000876A00230BE003EB830205EB8202D2ED4E
:102DE000087A67EEA67AC2ED087A0133DBB2032BCC
:102DF000F1D9002411E004EB840305EB830304EB19
:102E0000C400C00060302844D3ED080A93ED070ADF
:102E1000043005F06BF90134E4B2032CEBD92846F9
:102E2000FFF7BCFC002310E003EBC30205EBC2027A
:102E3000D2ED217AFDEEE77A03EB830205EB820205
:102E400017EE901A91840133DBB2032BECD905B055
:102E500030BD00BF0000000008B540F265100FF063
:102E600045F83048FFF720FE02E002200FF03EF860
:102E7000012000F01FFA0028F7D1022000F01AFA12
:102E80000028F2D1032000F015FA0028EDD104202B
:102E900000F010FA0028E8D100F00CFA0028E4D184
:102EA0001FE0022000F006FA80B3032000F002FACF
:102EB00060B3042000F0FEF958B927E01948B0F9D2
:102EC0006030B0F94C20B0F93810B0F92400FEF7AA
:102ED000FFF902200FF00AF800200FF0A1F9124BC1
:102EE0001860104C2046FFF749FD2046FFF7FEFC16
:102EF0002046FFF749FD2046FFF748FE2046FFF732
:102F000019FF012000F0D6F90028CAD1002000F0F6
:102F1000D1F90028D2D000231A4619461846FEF7E8
:102F2000D7F9D6E73C0F0020380F0020002A7CD0CC
:102F300070B52DED028B82B005460E461446002872
:102F400063D0002961D01268B2F9023000930A33CD
:102F50009BB2142B01D800230093B2F900300193E7
:102F60000A339BB2142B01D800230193DDED007AC4
:102F7000F8EEE78ADFED2D7A68EEA78ADDED017ABB
:102F8000B8EEE78ADFED2A7A28EE278A938A13F0D3
:102F9000010F3ED0D4ED848A13F0040F3FD094ED9E
:102FA000868AB0EE680A04F5E67005F021F8B0EE06
:102FB000480A04F5EE7005F01BF8DFED1E7AF4EE1A
:102FC000E78AF1EE10FA09D5DFED1B7AF4EEE78A15
:102FD000F1EE10FA02DD0023C4F8D031DFED177AEC
:102FE000B4EEE78AF1EE10FA09D5DFED157AB4EE0A
:102FF000E78AF1EE10FA02DD0023C4F8E031D4F8DC
:10300000D0312B60D4F8E031336002B0BDEC028BDC
:1030100070BD13F0020FBFD0D4ED858ABCE713F06A
:10302000080FBED094ED878ABBE77047A69BC43BD0
:103030000AD7A3BB90C2753D90C275BDCCCC4C3DA8
:10304000CCCC4CBD70B596B005465422264901A89B
:10305000FDF7A6FA00223AE002EB420C16AB03EBB6
:103060004C0C3CF8546C214C02EBC20E04EB8E036A
:10307000188A66F30B0018823CF8526C186966F3E4
:10308000173018613CF850CCD87C6CF34400D874ED
:1030900000209861D8611862D87C40F00100D87493
:1030A000C0B240F02000D874C0B240F04000D874E4
:1030B000C0B240F08000D8740021596144F82E500D
:1030C0005D609D6004EB8E04E5600132D2B20D2A92
:1030D000C2D9064B0022C3F8EC210549C3F8F01110
:1030E000C3F8F42116B070BDC09F01086C11002018
:1030F000198C000810B50EF0D7FD694B1860FFF76A
:10310000A1FF39200EF0F2FEB5E0664B93F80B22DA
:1031100042F0400283F80B22D2B242F0200283F840
:103120000B2204EBC40203EB8203DB6903B1984773
:1031300001340D2C00F3978004EBC403594A02EBD1
:103140008303DB7C13F0010FF2D0554B1A68554B0B
:1031500004EBC40103EB810C53F82110501ABCF8A6
:103160001030C3F30B03984227D99CF8133013F0A7
:10317000200F0CD19CF8130040F040008CF8130095
:10318000C0B240F020008CF81300CCF80820454B6A
:1031900004EBC40203EB8202D17CC1F34301424A37
:1031A000127802EBC20203EB8203DB7CC3F343031E
:1031B0009942AAD93C4B1C70A7E704EBC4033948D9
:1031C00000EB8303D868121A1B69C3F30B339A42CE
:1031D0000FD204EBC403334A02EB830303F1100262
:1031E000DB7C6FF38613D370DBB243F02003D37024
:1031F0009EE704EBC4032B4A02EB830303F11002A6
:10320000DB7C6FF38613D370DBB2DB0921D004EBD8
:10321000C403244A02EB8303DA7C42F02002DA740E
:1032200004EBC4031F4A02EB83035B6899427FF6F9
:103230007FAFC91A07EE901AF8EE677ADFED1B6AC6
:1032400086EEA77A04EBC40302EB830383ED057AD1
:103250006EE704EBC403134A02EB8303DA7C6FF3DB
:103260004512DA74DCE70A200EF040FE00200EF072
:10327000D7FF0F4B18600EF017FD094B18600A4B73
:103280000E221A70074B93F80B226FF3861283F805
:103290000B22D2B26FF3451283F80B22002448E7C9
:1032A0008C1300206C1100208813002000007A4449
:1032B0006811002000EBC000034B03EB8000C07CD2
:1032C000C0F34010704700BF6C110020F8B50446F1
:1032D000234E00EBC005AF0006EB8505F3596B608C
:1032E0000EF0E2FCF051EB7C13F0400F04D0EA7CCE
:1032F0006FF38612EA74E86004EBC403184A02EB29
:1033000083039B6913B39847B0B1154B04EBC40218
:1033100003EB820202F11001D27C42F02002CA705B
:10332000D2B242F08002CA7004EBC40403EB8403FF
:103330001B6A53B1984708E004EBC404084B03EB45
:103340008404E37C6FF3C713E374F8BD04EBC40497
:10335000034800EB8404E37C6FF3C713E374F4E7E2
:103360006C110020004870476C11002020B119B189
:1033700012B1002303600B607047000058B351B3D3
:103380004AB392ED6B7ADFED147A77EEC77AF0EEFE
:10339000E76A9FED127AF4EEC76AF1EE10FA08DDE3
:1033A0009FED0F7A67EE877AC1ED007A0022026006
:1033B00070479FED0B7A67EE877AC1ED007A92ED48
:1033C000317ADFED057A77EEC77A9FED067A67EE00
:1033D000877AC0ED007A704700000000CDCCCC3D6C
:1033E0006F12833B0AD7A33B70B169B162B192F807
:1033F000E431012B09D0022B2ED0032B53D0042B08
:1034000077D0052B00F09D807047504B0B60002358
:10341000036092ED6D7ADFED4E7AB4EEE77AF1EE6D
:1034200010FAF1D54B490B8801339BB20B80B3F5F1
:10343000FA6FE9D90B4600211980D2F8AC31C2F8F5
:10344000D431D2F8EC301B88A2F8E03192F8E431A4
:10345000013382F8E43170473F4B0B600023036077
:1034600092ED6D7ADFED3A7AB4EEE77AF1EE10FA8A
:10347000CAD538490B8801339BB20B80B3F5FA6F7C
:10348000C2D90B4600211980D2F8AC31C2F8D8312C
:10349000D2F8EC301B88A2F8E23192F8E431013323
:1034A00082F8E431704700230B60284B036092EDF3
:1034B000357ADFED277AB4EEE77AF1EE10FAA3D58C
:1034C00024490B8801339BB20B80B3F5FA6F9BD96B
:1034D0000B4600211980D2F8CC30C2F8CC31D36829
:1034E0001B88A2F8DC3192F8E431013382F8E43130
:1034F000704700230B60184B036092ED357ADFEDC7
:10350000147AB4EEE77AF1EE10FA7FF57DAF114947
:103510000B8801339BB20B80B3F5FA6F7FF674AF63
:103520000B4600211980D2F8CC30C2F8D031D368D4
:103530001B88A2F8DE3192F8E431013382F8E431DD
:103540007047044B00221A805EE700BF0000FA4576
:10355000CDCCCC3D901300200000FAC500285BD0F4
:103560008446002958D0002A56D000B51068B0F91A
:1035700004309E460A339BB2142B41D9274BA3F843
:1035800000E0B0F906309E460A339BB2142B3DD9B9
:10359000234BA3F800E0214BB3F9003007EE903A3B
:1035A000F8EEE77A9FED1F7A27EE877AB0F90C30B4
:1035B00007EE903AF8EEE77ADFED1B6A67EEA67A3F
:1035C00077EE677ACCED007A154BB3F9003007EE51
:1035D000903AF8EEE77A9FED157A27EE877A13682E
:1035E000B3F90E3007EE903AF8EEE77ADFED106AA5
:1035F00067EEA67A77EE277AC1ED007A5DF804FBD4
:10360000064B4FF0000EA3F800E0BAE7044B4FF072
:10361000000EA3F800E0BEE7704700BFA61300202D
:10362000A2130020ACC5A7B617B751389C53C9B632
:1036300052491D3920B119B112B1002303600B604A
:1036400070470000002800F0868010B50446424B09
:103650001B78022B13D094F8E431012B14D03E4B8D
:103660001B78012B19D023689B7A022B57D0032B90
:103670006DD0012B56D1384B03221A7052E090F8CE
:10368000E431052B62D1E6E70020FFF713FE0028A6
:10369000E5D1314B02221A7058E0304A13880133C9
:1036A0009BB21380D4ED317AF0EEE77A9FED2C7A5D
:1036B000F4EEC77AF1EE10FA10D5D4ED6B7AF0EE95
:1036C000E77AF4EEC77AF1EE10FA07D5254B1B889E
:1036D000632B0AD80133234A138006E041F26F724C
:1036E000934202D801331D4A13801C4B1A8841F2C1
:1036F0006F739A4207D81B4B1B88632B03D8236830
:103700009B7A022B05D10023164A1380134A13809B
:10371000A9E70020FFF7CEFD0028F4D116E00E4BFC
:1037200000221A700020FFF7C5FD10B10A4B0022DD
:103730001A700D4B1B782BB9074B1B7813B1064B36
:1037400001221A70044B1A78074B1A7010BD024BF5
:1037500004221A70E6E77047921300209C130020A1
:10376000CDCCCC3D9A1300209E130020002800F001
:10377000BD8038B51446054600295FD0002A5DD0CB
:103780001268B2F9043018460A339BB2142B56D98A
:10379000574B1880B2F9063018460A339BB2142BE7
:1037A00051D9544B1880524BB3F9003007EE903A80
:1037B000F8EEE77A9FED507A27EE877AB2F90C306F
:1037C00007EE903AF8EEE77ADFED4C6A67EEA67AFC
:1037D00077EE677AC5ED007A464BB3F9003007EE15
:1037E000903AF8EEE77A9FED467A27EE877A2368DB
:1037F000B3F90E3007EE903AF8EEE77ADFED416A62
:1038000067EEA67A77EE277AC1ED007A23689B8A65
:1038100013F4007F07D03C4B1B8813F4007F02D1C8
:103820003A4B1B789BB123689A8A374B1A80374BE7
:103830001B78EBB9354B1B78002B3DD138BD2C4B99
:1038400000201880A6E72B4B00201880ABE72F4BF9
:1038500001221A7094ED330A9FED2D1ADFED2D0A27
:1038600030EE010A04F004FC2B4B83ED000ADAE78A
:10387000D4ED337A284B93ED000A9FED251ADFED46
:10388000250A30EE670A04F0F3FBB5EEC00AF1EE4C
:1038900010FA08DDD5ED007A9FED207A77EE877A71
:1038A000C5ED007AC6E7D5ED007A9FED1C7A77EE7C
:1038B000C77AC5ED007ABDE7D4ED337A164B93EDA8
:1038C000000A9FED131ADFED130A30EE670A04F0C9
:1038D000CFFBB0EEC00ADFED127AB4EEE70AF1EEEC
:1038E00010FAABD5094B00221A70A7E7704700BF4A
:1038F000A8130020A4130020ACC5A7B617B75138F1
:103900009C53C9B652491D39A013002098130020BA
:10391000DB0F4940DB0F49C0941300200AD7233D39
:103920000AD7233C98B310B50446FFF78BFE184B1B
:103930001B7823B984F8B83084F8983110BD012B76
:103940000DD0022B11D0032B15D0042B19D0052B31
:10395000F4D1022384F8B83084F89831EEE70223DA
:1039600084F8B83084F89831E8E7002384F8B83058
:1039700084F89831E2E7012384F8B83084F898316C
:10398000DCE7022384F8B83084F89831D6E7704732
:103990009213002008B301B3FAB108B50F4B1B789E
:1039A00063B1012B0DD0022B0ED0032B0FD0042BB3
:1039B00010D0052B04D1FFF73DFE01E0FFF7D6FC48
:1039C00008BDFFF7DBFCFBE7FFF70EFDF8E7FFF7AD
:1039D000CDFEF5E7FFF7C2FDF2E770479213002036
:1039E000084B1A78531EDBB2012B04D9052A04D0E8
:1039F0002AB901207047012070470120704700203C
:103A0000704700BF92130020034B1B78022B01D894
:103A1000012070470020704792130020411AB1F531
:103A2000805F0BDDA1F5FF511F3907EE901AF8EE0C
:103A3000E77A9FED060A27EE800A704711F5805F4E
:103A4000F3DA01F5FF511F31EFE700BFDB0F493A11
:103A5000034600284BD090F8B9206AB190F8B8100E
:103A600051B9B0F9E82007EE902AF8EEE77AC0EDF8
:103A7000397AC0ED387A0BE0012A03D093F8B810F8
:103A800001291AD0022A03D093F8B820022A19D0AB
:103A900093F8B82083F8B92093F89921BAB193F834
:103AA0009811A1B9B3F9C82107EE902AF8EEE77A88
:103AB000C3ED717AC3ED707A15E0D3F8CC20C3F86A
:103AC000D020E5E7D3F8C420C3F8C820E0E7012AF6
:103AD00003D093F8981101290AD0022A03D093F851
:103AE0009821022A09D093F8982183F899217047E8
:103AF000D3F8AC21C3F8B021F5E7D3F8A421C3F87B
:103B0000A821F0E7C0B1D0ED2F7A30EE270A80ED82
:103B10002F0AD0ED2C7AB4EEE70AF1EE10FA02DDAE
:103B2000C0ED2F7A7047D0ED2D7AB4EEE70AF1EEB2
:103B300010FA01D5C0ED2F7A704748B1D0ED357A33
:103B4000C0ED367AFDEEE77A17EE902AA0F8DC2079
:103B5000704760B180ED001AC0ED011A80ED022AB5
:103B6000002242610261C0ED070A80ED060A70473B
:103B700038B100220261C260426182624262026226
:103B8000C262704718B108B5FFF7CCFE08BD704798
:103B900000283AD038B52DED028B044645686B6895
:103BA000C0F8AC31D0F8EC30B0F89A111888FFF7B3
:103BB00035FFB1EE408A84ED698AA3685B68C4F87A
:103BC000B4312B68C4F8CC30E368B4F8BA10188864
:103BD000FFF724FF84ED310AB0EE480A0FF036F902
:103BE000A36893ED028A20EE088A94ED690A0FF02B
:103BF000DFF8A368D3ED007A20EE270A38EE408A7A
:103C000084ED358ABDEC028B38BD70472DE9F84F45
:103C10002DED028B0446FDF785FBE060FDF786FB8A
:103C2000C4F8EC00FDF780FE6060FDF781FEA06047
:103C300000F0FAFE2060002584F8B95084F8B850EE
:103C400084F8995184F8985104F1100B9FED428A41
:103C50009FED422AF0EE481AB3EE0A1AF0EE480A37
:103C6000B2EE040A5846FFF774FF04F1400AB0EEC2
:103C7000482AF0EE481AB2EE001AF0EE480AB2EE08
:103C8000040A5046FFF765FF04F17009DFED348A3E
:103C9000DFED340AB0EE680A334A2946484604F09C
:103CA0000CFA04F1F008B0EE482AF0EE481AB2EE31
:103CB0000E1AF0EE480AB2EE040A4046FFF749FF3A
:103CC00004F59077B0EE482AF0EE481AB2EE0E1ADC
:103CD000F0EE480AB2EE040A3846FFF73AFF04F560
:103CE000A876DFED220AB0EE680A214A294630465E
:103CF00004F0E3F95846FFF73BFF5046FFF738FF63
:103D0000484604F09FFA4046FFF732FF3846FFF777
:103D10002FFF304604F096FA2046FFF739FFD4F81B
:103D2000CC30C4F8D030D4F8C430C4F8C830D4F89B
:103D3000D430C4F8D830D4F8AC31C4F8B031D4F8A9
:103D4000A431C4F8A831D4F8B431C4F8B831BDEC0A
:103D5000028BBDE8F88F00BF000000009A99993EE1
:103D60000060EA4600409C45D0A5010800401C4682
:103D7000C4A5010800284DD010B52DED028BB0EE82
:103D8000408A044690ED310AD0ED307A9FED221A38
:103D9000DFED220A30EE670A04F06AF9204B83ED6A
:103DA000000AD4ED2E6A70EE267A77EE887A94EDCA
:103DB0002C7AF4EEC77AF1EE10FA1ADDB5EEC08A6D
:103DC000F1EE10FA03DD37EE667A37EE408A94EDB5
:103DD000310A144B83ED000A9FED0F1ADFED0F0A35
:103DE00030EE080A04F044F984ED310ABDEC028B90
:103DF00010BD94ED2D7AF4EEC77AF1EE10FAE6D507
:103E0000B5EEC08AF1EE10FAE1D537EE667A37EEFC
:103E1000408ADCE7704700BFDB0F4940DB0F49C039
:103E2000B0130020AC13002000283CD010B582B0A5
:103E300004460023019300930246694601A8FFF758
:103E4000A9FD94F8B83053B9019BC4F8E03094F858
:103E50009831B3B9009BC4F8C03102B010BD012B3A
:103E600008D0022BF3D19DED010A04F10C00FFF7FD
:103E700049FEECE79DED010A04F10C00FFF77AFF23
:103E8000E5E7012B08D0022BE7D19DED000A04F1F4
:103E9000EC00FFF737FEE0E79DED000A04F1EC00CF
:103EA000FFF768FFD9E77047002848D010B52DED1F
:103EB000028BF0EE607AB0EE418A044680ED040A8F
:103EC000C0ED030A9FED1F1ADFED1F0A37EEC00A8F
:103ED00004F0CEF884ED050AD4ED007A60EE277A7E
:103EE000C4ED087AD4ED017A20EE270AD4ED097AE0
:103EF00037EE800A84ED090A94ED021A21EE081AC1
:103F000084ED0A1A94ED070A04F1240004F08CF8F9
:103F1000D4ED087A94ED097A77EE877A94ED0A7AEF
:103F200077EE877AC4ED0B7A94ED060A04F12C0043
:103F300004F07AF894ED0B0ABDEC028B10BD9FEDF6
:103F4000030A7047DB0F4940DB0F49C00000000047
:103F5000E8B110B5044690ED321AD0ED310A90ED7B
:103F6000300A0430FFF7A0FFF0EE400A84ED330A78
:103F700094ED320A04F1640004F0B8F884ED360AD6
:103F8000BDEEC00A10EE103AA4F8DC3010BD704748
:103F9000E8B110B5044690ED321AD0ED2F0A90ED3D
:103FA0002E0A3430FFF780FFF0EE400A84ED330A2A
:103FB00094ED320A04F1640004F098F884ED360AB6
:103FC000BDEEC00A10EE103AA4F8DC3010BD704708
:103FD00058B310B5044690F8B8305BB1012B0DD042
:103FE000022B0FD094F8983183B1012B13D0022B00
:103FF00016D010BD0C30FFF7A0FDF3E70C30FFF733
:10400000A7FFEFE70C30FFF7C3FFEBE704F1EC008D
:10401000FFF793FDEDE704F1EC00FFF799FFE8E708
:1040200004F1EC00FFF7B4FFE3E7704708B5C920DF
:104030000DF05CFF3148FFF7E9FD01F065F805E0A0
:1040400001200DF053FF2D48FFF7A2FD0520FFF7DB
:1040500031F90028F4D10620FFF72CF90028EFD120
:104060001DE00620FFF726F900283AD00720FFF7C9
:1040700021F960B935E00023214AB2F90020214935
:10408000B1F900102048B0F90000FDF7D5F8012083
:104090000DF02CFF00200EF0C3F81C4B1860174CDD
:1040A0002046FFF76FFD2046FFF7D2FC2046FFF7C2
:1040B0006FFD2046FFF7B8FE2046FFF789FF01F0AD
:1040C00087F80F4B1880B4F9E8200F4B1A80B4F82A
:1040D000C8315B420B4A13800520FFF7EBF800283C
:1040E000BFD10020FFF7E6F80028C4D000231A460D
:1040F00019461846FDF7A0F8C9E700BFB413002021
:10410000A2150020A0150020A41500209C15002059
:1041100000487047C013002000487047A0140020DA
:1041200038B52DED088B002529E07BEE8ABA3BEEF1
:1041300029BA7AEE89AA38EE288AFCEEEB7A17EED5
:10414000903AFCEECB7A17EE900A020442EA036042
:10415000FCEEEA7A17EE903A40EA0323FCEEC87AC6
:1041600017EE900A184301F0A9FE01200CF084FC20
:104170000134A4B2B4F57A7FD7D30135ADB2052DA1
:10418000D1D8234A52F82530190E0BEE901AF8EECA
:104190006BBAC3F307410BEE101AB8EE4BBAC3F378
:1041A00007210AEE901AF8EE6AAADBB207EE903AFF
:1041B000B8EE678A6B1C52F823301A0E06EE102AEE
:1041C000B8EE466A36EE6B6AC3F3074206EE902AF3
:1041D000F8EE666A76EECB6AC3F3072207EE102A82
:1041E000B8EE477A37EE6A7ADBB207EE903AF8EE2D
:1041F000677A77EEC87ADFED075A86EE25AAC6EE13
:10420000A59A87EE259AC7EEA58A0024B2E700BFDB
:104210009800002000007A4470B5FFF7A3F8764BB1
:1042200018604FF47A700CF027FC04F01FFD04F0C6
:104230009FFE642203E00A200CF01EFC2246531E5F
:10424000DCB2002A00F0948004F08CFD0028F2D04B
:104250000D20FFF73BF8EEE70D20FFF737F88CE075
:10426000002840F0948004F001FD90E001F012FA83
:10427000632808D801F00EFA0346604A022106209E
:1042800004F048FEA5E001F005FA03465B4A02216E
:10429000032004F03FFE9CE0A41004EB4404A400BF
:1042A000E4B20F34E4B24D222146284604F0DCFD8E
:1042B00006F13002A81DD2B22146C0B204F0D4FDEE
:1042C00006EBC6024C4B1B6803EB8203DB7CC3F39B
:1042D000401305F10C004A4A02EBC3022146C0B26A
:1042E00004F054FE0136F6B2072E0ED8731E5D019F
:1042F0006A4205F07F0502F07F0258BF5542EDB2D9
:104300001C46002BC8DAB41CC6E708250B2D26D89E
:104310006E0106F06006AB0803EB4304A400E4B2B0
:104320000F34E4B2A5F10802364B03EB82022146BA
:10433000304604F0D7FD05EBC5022F4B1B6803EB9D
:104340008203DB7CC3F340132D4A02EBC3022146F8
:1043500006F1120004F01AFE0135EDB2D6E704F0C2
:10436000F7FD294B1A78294B1A700A200CF084FBB0
:1043700004F0F8FC00287FF46FAF0D20FEF79AFFE1
:10438000214B1870214B1B78012B3FF469AF1E4B5A
:104390001B78002BE5D11E4A13780133DBB2137072
:1043A0000A2BDED900241470204604F0E3FC194ADD
:1043B0000121204604F0EAFD01F06CF909283FF6DE
:1043C00055AF01F067F903460C4A0221092004F0B9
:1043D000A1FD114A1B215A2004F084FD064B1B68E5
:1043E000DB7CC3F34013064A02EBC3021B2173209C
:1043F00004F0CCFD012677E7A8150020DCA5010814
:1044000020A60108B4000020AD150020AC15002046
:10441000AE150020E8A50108E0A501081E4A00230A
:10442000136013711D4A136013711D4A138093703A
:104430001C4A13701C4A136053609360D36013616D
:1044400053619361194A1360194A1360194A138022
:104450009370194A1380194A136053609360C2F82D
:104460000B30174A1360536093609381154A1360B1
:1044700053609360D360144A1370144A1380144A33
:104480001370144A13609380134A1370134A136015
:1044900053609360704700BF00160020081600208C
:1044A000EC150020BC150020C0150020B815002018
:1044B0004016002044160020101600201C16002074
:1044C000F0150020DC150020B01500201416002087
:1044D000181600202C160020B415002034160020D9
:1044E00084465A4B006818609CF804201A71BCF886
:1044F0000530B3F5027F3DD810B4B3F5007F2FD857
:10450000B3F5827F29D8B3F5807F07D9A3F20113D1
:10451000032B22D8DFE803F041464B53022B37D060
:10452000032B11D14A4CDCF80700DCF80B10DCF847
:104530000F20DCF813300FC4DCF81700DCF81B1078
:10454000DCF81F2007C408E0012B06D1414BBCF862
:1045500007109CF8092019809A705DF8044B704789
:10456000A3F20123072BF8D8DFE803F02E3D4954CE
:10457000595E636B40F20132934208D1364BDCF84E
:104580000700DCF80B10DCF80F2007C370477047FA
:104590009CF80720314B1A70DFE7DCF80720304B1E
:1045A0001A60DAE7DCF807202E4B1A60D5E72E4BAD
:1045B000BCF807109CF8092019809A70CDE7BCF868
:1045C00007202A4B1A80C8E7294BDCF80700DCF8E3
:1045D0000B10DCF80F2007C3BCF813109CF8152053
:1045E00019809A70B9E7234BDCF80700DCF80B1050
:1045F000DCF80F2007C3BCF813201A80ADE71E4C6F
:10460000DCF80700DCF80B10DCF80F20DCF81330C6
:104610000FC4A2E79CF80720184B1A709DE7BCF85E
:104620000720174B1A8098E79CF80720154B1A7043
:1046300093E7154BDCF807001860BCF80B209A8054
:104640008BE79CF80720114B1A7086E700160020B4
:10465000C0150020EC15002034160020BC150020E9
:10466000B815002040160020441600201016002027
:104670001C160020F0150020DC150020B0150020CD
:1046800014160020181600202C160020B415002047
:10469000054B5A6802601B8907EE903AF8EE677A7C
:1046A000C1ED007A704700BFF0150020014B18786B
:1046B000704700BF1C160020034B1B890380034B6F
:1046C0005B890B80704700BF1C160020F01500208E
:1046D00008B520E0A52806D0594B002283F8872092
:1046E00083F8882017E0564B012283F88620B3F820
:1046F0008720511CA3F88710134498710BE0504B8E
:104700009880B3F88720511CA3F887101A44907141
:10471000022283F886204B4804F0C7FD002800F0F1
:104720008E80484804F0AAFD454B93F88630052B4F
:104730007CD801A252F823F0D5460008FF460008B5
:10474000514700088D470008A5470008E5470008C5
:104750003B4B9A8842EA002292B29A80B3F88710C3
:1047600001F1010CA3F887C00B449871762A04D894
:10477000334B032283F88620CDE7314B002283F8A8
:10478000862083F8872083F88820C4E72C4BB3F871
:104790008720511CA3F887101A449071042283F8D3
:1047A0008620B8E7264BB3F88720511C1FFA81FCFE
:1047B000A3F8871013449871BCF1050FABD1052104
:1047C000214804F0BDFC20B11D4B052283F8862052
:1047D000A1E71B4B002283F8862083F8872083F80B
:1047E000882098E7164BB3F88720998809318A42C8
:1047F00005D202F1010CA3F887C013449871104B45
:10480000B3F88730994286D80D48002380F8863067
:1048100080F8873080F88830063004F0C1FC00282A
:104820003FF479AF0848FFF75BFE74E7044B0022C2
:1048300083F8862083F8872083F888206BE708BDFB
:10484000601A002048160020661A002008B5FFF7FD
:10485000E5FD4FF480620849084804F0C5FC0848AB
:104860004FF40072811803F0F3FAFFF731FF0A20CA
:104870000CF002F9F9E700BF60160020481600208E
:10488000EC1A0020304B1B6813F0100F5AD000B503
:1048900083B0002301932D4B1A681168019152686F
:1048A0000192019A9B6B1B681A6812F4002F25D1A4
:1048B0001A6822F001021A60244B9A6B11684A6848
:1048C000C2F5007292B2224802804FF40070486034
:1048D000996B0868016841F4002101609B6B1968BD
:1048E0000B6843F001030B601A491B4804F087FC76
:1048F0000B20FEF7EBFC03B05DF804FB1A6822F016
:1049000001021A60114B9A6B11684A68C2F5007275
:1049100092B20F4802804FF400704860996B0868AB
:10492000016821F4002101609B6B19680B6843F05A
:1049300001030B600949084804F061FC0B20FEF7F5
:10494000C5FCD8E7704700BF0014014010340020B8
:10495000EA1A0020EC1A002048160020EC1C002067
:1049600000285FD0034600295CD030B590F800C025
:1049700042784CEA022CCCF30A0CA1F800C0427831
:104980008078D20842EA4012C2F30A0EA1F802E08F
:104990009A78D878920942EA8002187942EA80220D
:1049A000C2F30A028A8018795C79400840EAC41090
:1049B000C0F30A00C8805C79C4F301148C725C797E
:1049C000A409CC729C79DD7944EA05248C811C7A97
:1049D0005D7A44EA0524CC819C7ADD7A44EA052498
:1049E0000C821C7B8C745C7BCC749C7BDD7B44EAEE
:1049F00005248C821C7C5B7C44EA03231CB20B8163
:104A0000ACF5806CA1F800C0AEF5806EA1F802E0B4
:104A1000A2F580628A80A0F58060C880A4F58063DA
:104A20000B8130BD7047000000487047F01E002029
:104A300010B5154A1346A62103F8011B0468D0F8E7
:104A400004E0D0F808C0C168C2F80140C3F804E02F
:104A5000C3F808C0D960018A198200230B490B7082
:104A6000D37407E0084AD15CD07C0144D17401338F
:104A7000064A1370054B1B78122BF3D914210248F8
:104A800003F0A4F910BD00BF541F0020EC1E00204D
:104A900010B582B0354B1B681A6812F0200F08D091
:104AA000002200921A6800925B680093009B02B09B
:104AB00010BD2F4A126812F0100FF8D00022019298
:104AC0001A6801925B680193019B2A4B1B681A6864
:104AD00012F4002F24D11A6822F001021A6025482E
:104AE00002685368C3F124039BB223490B8024213D
:104AF0005160116841F40021116001680A6842F0B8
:104B000001020A60122BD2D11C4C1D492046FFF72E
:104B100027FF0020FEF7DAFB2046FFF789FFC6E7F4
:104B20001A6822F001021A60124908684368C3F14A
:104B30002403114A1380242343601248836A23F418
:104B40000023836209680B6843F001030B6013883C
:104B5000122BACD10C4C0A492046FFF701FF002074
:104B6000FEF7B4FB2046FFF763FFA0E7CC3300203D
:104B70000048004068320020501F0020081F00201D
:104B8000F01E0020006002402C1F002010B5FFF72F
:104B90004BFF214B18603DE0204A32F814201342AD
:104BA00005D01F4A32F814300A3322F81430224656
:104BB0001B4B33F81430B3F5FA7F20D2184B4FF467
:104BC000FA7123F814102146154B33F8120001F046
:104BD0009DF90134E4B2032C19D80F4B1B689B8A52
:104BE00013F0100FD8D00D4A32F814201342D3D04E
:104BF0000B4A32F814300A3B22F81430D7E740F65B
:104C0000C4118B42DFD9064B23F81410DBE70A20CE
:104C10000BF032FF0024DEE7681F002060A60108C9
:104C2000C40000201D4BB3F8A230B3F52F7F18D27B
:104C30001A4AD2F88010C2F88810184AD2ED217AA8
:104C4000F0EEE77AB7EE007AF4EEC77AF1EE10FAFA
:104C50000FD4B3F52F7F16D0104B0022A3F8A2205B
:104C600070470E4AD2ED207AF1EE677AC2ED227AD1
:104C7000E3E7B3F52F7FECD20133A2F8A230002393
:104C8000A2F8A4307047054BB3F8A430B3F5FA7F0F
:104C9000E2D20133014AA2F8A43070476C1F002011
:104CA00010B5614BD3ED006A604AC2ED006A6049FD
:104CB00091ED007A83ED007ADFED5E7A67EE277A78
:104CC0009FED5D7A66EE876A77EEA67A5B4B9A680F
:104CD000B2F9020007EE100AB8EEC77ADFED586AA3
:104CE00027EE267ADFED576A27EE267A77EE877A67
:104CF000C1ED007AC3ED217A1388B2F908105B1A6E
:104D0000B3F5805F3DDD4D4991F99630013B81F867
:104D100096304A4B93F99630122B3CD013F1120F78
:104D20003ED0464C94F99630C3EB4333128813447B
:104D300007EE903AF8EEE77A9FED437A67EE877ACE
:104D4000C4ED237A8021414807F0F6FA84F8A700E1
:104D500094F8973084F8993094F8983084F89A3021
:104D60006268917C84F89710D37C84F89830E1B124
:104D7000B4F89C10B1F5C87F1BD20131A4F89C1087
:104D800017E013F5805FC4DA2C4991F996300133AE
:104D900081F89630BDE7294BEF2183F89610C0E7E4
:104DA000264B112183F89610BBE724490020A1F877
:104DB0009C0053B12149B1F89E10B1F5C87F08D2CB
:104DC00001311E48A0F89E1003E01C490020A1F804
:104DD0009E001A49097811B1D27A022A13D0174AD3
:104DE0000021A2F8A01013B1194B50221A80184BC1
:104DF0001B889BB11149174A8A61C1F82E20013BDB
:104E0000134A138010BD0D4AB2F8A020B2F5FA6F14
:104E1000E9D201320949A1F8A020E4E7074A0E4B84
:104E20009361C2F82E30EDE7202000201C200020E6
:104E30002420002010E4DC3FCB8541BF6C1F002004
:104E4000F1A23E3B7FB5F73CC2B8B237002002402A
:104E5000282000200000AF440000A54408B5814B85
:104E60005A68D37A012B34D0012B3FD0032B4AD080
:104E7000032B54D07B4A1278012A5CD0022A75D0C9
:104E8000032A7CD0032A00F08480062A00F0A18047
:104E9000744B1B78012B40F2BC80724AB2F89C2004
:104EA000B2F5C87F00F0B2806E4AB2F89E20B2F52B
:104EB000C87F00F0AB806B4AB2F8A020B2F5FA6F61
:104EC00000F0A480052B40F0A480664B02221A70EB
:104ED0009FE0654991F900100129C5D06149097821
:104EE0000029C1D15F4901200870BFE75E4991F9EF
:104EF00000100129BAD05B4909780029B6D0594978
:104F000000200870B2E7918A11F0400FB0D05549E7
:104F100009780029ACD1534A01211170AAE7928A7D
:104F200012F0800FA6D04F4A1278002AA2D04D4A24
:104F3000002111709EE74B4991ED047AD1ED067A7C
:104F4000B4EE677AF1EE10FA98D1D1F82600D1F8D4
:104F50002E1007EE900A07EE101AF4EE477AF1EEE3
:104F600010FA8BD13F4B02221A7091E73D4991F81C
:104F7000A710002984D13B4B03221A7088E73949D6
:104F800091F8A71001297FF47DAF364B02221A70E9
:104F90007EE7022B14D0334B93F897301BB1314B83
:104FA00093F899308BB12F4B93F89830002B3FF446
:104FB0006FAF2C4B93F89A30002B7FF469AF04E06D
:104FC000294B93F90030022BE5D0264B04221A70AE
:104FD0005EE7244B93F8A730012B06D0214B00222B
:104FE00083F8A82004221A7052E71E4A92F8A830CB
:104FF0000133DBB282F8A8300F2B7FF649AF13469E
:10500000002283F8A82002221A7041E7154B0522DE
:105010001A70144800F1AC01AA30FFF74DFB0B20C9
:10502000FEF748F968B90F4AB2F8AC304F33B2F81E
:10503000AA20934205DB0B4B1B78043BDBB2012B10
:105040000CD9FEF7E1FC10B1064B00221A70054B9B
:105050005B6893F90B20044B1A7008BD014B0222C8
:105060001A70EEE76C1F0020CC00002010B5204B1A
:1050700093F8A630EBB11E4B93F8A730012B2BD041
:105080001B4B93ED240AD3ED237A9FED1A1ADFED23
:105090001A0A30EE670A02F0EBFFDFED187AB4EE81
:1050A000E70AF1EE10FA1BDC114B002283F8A62070
:1050B00010BD0F4C94ED230A9FED0E1ADFED0E0A82
:1050C000DFED0F7A30EE270A02F0D2FF84ED240ADA
:1050D000012384F8A630CEE7054B06221A70CFE7ED
:1050E000034B084AC3F88020FFF79CFDE0E700BFB0
:1050F0006C1F0020DB0F4940DB0F49C0CDCC4C3D7D
:105100009CC4A03E0000204138B52DED048B284CF6
:1051100000252570FFF788FC6060FCF70BF9A060A4
:10512000DFED240A9FED240A244A294604F13800C1
:1051300002F0C3FFFFF7B4FD9FED219ADFED218A56
:105140009FED218AB0EE491AF0EE680AB0EE480AE7
:1051500004F10C0002F010FFB0EE491AF0EE680AFC
:10516000B0EE480A04F1220002F006FF4FF47A7311
:105170002384E38684F89650A3681B8807EE903A50
:10518000F8EEE77A9FED117A67EE877AC4ED237A1D
:10519000A4F8945084F8A650C4ED247A0023C4F8EF
:1051A0008430C4F8883084F8A850BDEC048B38BD36
:1051B0006C1F002000C0DA4500401C4668A60108AC
:1051C00000007A440000A5446F12833AC2B8B23797
:1051D00010B52DED028BFFF741FEFFF761FD544B3B
:1051E0001B78002B37D1524B0022C3F88820504B3C
:1051F0001B78002B71D100F059FE4D4C0023A4F810
:1052000094309FED4C8AB0EE480A04F10C0002F095
:10521000C0FEB0EE480A04F1220002F0BAFE444C8F
:10522000D4ED047AFCEEE77A17EE903A98B2208437
:10523000D4F8263007EE903AFCEEE77A17EE903A73
:10524000E38600F013FCE08E00F016FCB4F9940045
:10525000BDEC028B10BD012B0ED0022B11D0032B05
:1052600027D0042B2AD0052B30D0062BBFD1304BB2
:105270000022C3F88820BAE72D4B0022C3F888200B
:10528000B5E72B4B93F8A730012B0BD0284B00220E
:10529000C3F88020C3F88820254B274A9A64274A00
:1052A000DA64A4E7224B264AC3F88020FFF7BAFC51
:1052B000F2E71F4B0022C3F8882098E71C4B1E4AD8
:1052C0009A64204ADA64FFF7D1FE90E7184B1E4A31
:1052D000C3F88020FFF7A6FC89E700F0DFFD144C3F
:1052E000D4ED220A94ED210A04F1380002F0FEFE0A
:1052F000D4ED167AFDEEE77A17EE903AA4F89430E2
:105300002378012B0FD99FED118A094CB0EE480A82
:1053100004F10C0002F03DFEB0EE480A04F1220058
:1053200002F037FE7BE70022A4F89420EBE700BFF1
:105330006C1F00200000C8C200401C4600C0DA45B7
:105340000000A04000A00C46000070410000C842D0
:1053500008B5164B1A7842B9154B1B782BB9134B6D
:105360001870134B64221A7008BD7AB111490B787A
:105370000133DBB20B70312B0FD9632B10D90D4BDE
:1053800000211970013A094B1A70EDE7084A1378A9
:10539000013B137000F014FAE6E700F011FAE3E7BE
:1053A00047F23051012000F003FADDE732200020FF
:1053B000CD0000203320002008B5FDF7D3FF1B4BA4
:1053C000186029E001331A4A1370194B1B780A2B15
:1053D0000CD803EBC3021549096801EB8202D27CA9
:1053E00012F0200FEED0134B01221A70114B1B78D4
:1053F00013B9114B1B78ABB90E4B1B782BB10C4B6F
:1054000018780130C0B2FFF7A3FF0A4B1A780A4B95
:105410001A700A200BF030FB0023064A1370044A6E
:105420001370D2E700F0CCF9E6E700BF2C20002093
:10543000302000202A200020312000200FB410B599
:1054400002AA52F8041B074B1A60074C20460EF0C4
:105450008BF881B220460DF079FABDE8104004B017
:10546000704700BF342000203C2000202DE98048F8
:105470008BB00DF019FAFDF775FF394B18604FF43A
:105480007A700BF0F9FA00F005F90146344B1C680C
:10549000E07CC0F34010334AC0EBC00094F837B052
:1054A000CBF3401BCBEBCB0B94F85B50C5F3401513
:1054B000C5EBC505154494F87F60C6F34016C6EBEE
:1054C000C606164494F8A370C7F34017C7EBC70786
:1054D000174494F8C730C3F34013C3EBC30313441A
:1054E00094F8EBC0CCF3401CCCEBCC0C944494F877
:1054F0000FE1CEF3401ECEEBCE0E964494F83381EE
:10550000C8F34018C8EBC808904494F85791C9F301
:105510004019C9EBC909914494F87BA1CAF3401A18
:10552000CAEBCA0A924494F89F41C4F34014C4EBF6
:10553000C40414440994CDF820A0CDF81C90CDF8F3
:105540001880CDF814E0CDF810C0039302970196AF
:10555000009502EB0B0302440348FFF76FFF8EE751
:105560003820002098A7010874A6010820EE007AD0
:1055700060EE077ADFED2B6AB4EEE60AF1EE10FA80
:1055800037D4DFED296AB4EEE60AF1EE10FA14D54D
:10559000DFED266A67EEA67ADFED256A27EE267A2A
:1055A00077EEC77A9FED237A20EE070A37EE800A5E
:1055B000DFED217A30EE670A1DE0DFED206AB4EE00
:1055C000E60AF1EE10FA25D5DFED1D6A67EEA67A40
:1055D000DFED1C6A27EE267A77EEC77A9FED1A7AFE
:1055E00020EE070A37EE800ADFED187A30EE670A00
:1055F00001E09FED170AB5EEC00AF1EE10FA0DD4E6
:10560000F7EE007AB4EEE70AF1EE10FA05DDB7EE38
:10561000000A7047B7EE000AEDE770479FED0C0AED
:10562000704700BF00009C413333AF411399B93B31
:10563000FB5CAD3EE17AD84014AE34420000CC4170
:1056400061E0B93C46B6D33F295C21423333A443E1
:105650000000000008B54FF47A700BF00DFA00F06E
:1056600049F800F08BF8DFED087A30EE270A074B97
:1056700083ED000AFFF77AFF054B83ED000A6420F3
:105680000BF0FAF9EDE700BF000000003C2100201C
:1056900040210020064BD3ED007A9FED067A67EE9D
:1056A000877AFCEEE77A17EE903A98B2704700BF1F
:1056B000402100200000C84210B504460C4B196080
:1056C00001225A6000229A60194605F06BFD58B914
:1056D000204605F065FC0A21204605F003FD204622
:1056E00005F05CFD80B210BD04F010FBF0E700BFD8
:1056F0004421002038B500252C4606E011210A4837
:10570000FFF7DAFF05440134E4B2C72CF6D907EEFF
:10571000905AF8EE677ADFED056A86EEA77A044BB9
:1057200083ED007A38BD00BF94250020010070434E
:10573000D000002008B510210C48FFF7BDFF07EE90
:10574000900AF8EE677A0A4B93ED000A67EE807ACA
:105750009FED080A77EEC07A9FED070A67EE807A20
:10576000B3EE090A37EE800A08BD00BF9425002079
:10577000D00000205C8F423F0000C84308B50821DC
:105780000848FFF799FF07EE900AF8EE677A064B94
:1057900093ED000A67EE807A9FED040A27EE800AF7
:1057A00008BD00BFDC250020D00000205D74214131
:1057B000024B1B689862D963704700BF30310020EC
:1057C000024B1B680022DA63704700BF30310020B3
:1057D00010B44FF0E0235C690C4A92F800C000FB63
:1057E0000CFC9B69002104E0E01A0244114461456D
:1057F00009D21A464FF0E0239B699A42FAD0F3D9B6
:10580000D21A1144F3E75DF8044B7047542100208D
:1058100000F17843B3F5804F45D3A3F58043B3F54A
:10582000804F42D300F17843A3F50043B3F5804F96
:105830003DD300F17843A3F54043B3F5804F38D30F
:1058400000F1774303F57F03B3F5803F33D300F1D5
:10585000774303F57E03B3F5003F2ED300F1774382
:1058600003F57C03B3F5003F29D300F1774303F53B
:105870007A03B3F5003F24D300F1774303F57803AF
:10588000B3F5003F1FD300F1774303F57603B3F57B
:10589000003F1AD300F1774000F57400B0F5003FE7
:1058A00015D20A207047002070470120704702205F
:1058B000704703207047042070470520704706207A
:1058C00070470720704708207047092070470B2059
:1058D000704710B586B00C46FFF79AFF039000237F
:1058E000019302230593049406F0EEFA694601A899
:1058F00006F0E6FB06F000FB06B010BD00F17843B1
:10590000B3F5804F45D3A3F58043B3F5804F42D321
:1059100000F17843A3F50043B3F5804F3DD300F188
:105920007843A3F54043B3F5804F38D300F1774374
:1059300003F57F03B3F5803F33D300F1774303F5DD
:105940007E03B3F5003F2ED300F1774303F57C03CC
:10595000B3F5003F29D300F1774303F57A03B3F59C
:10596000003F24D300F1774303F57803B3F5003FFC
:105970001FD300F1774303F57603B3F5003F1AD345
:1059800000F1774000F57400B0F5003F15D20C48E7
:1059900070470C4870470C4870470C4870470C48DB
:1059A00070470C4870470C4870470C4870470C48CB
:1059B00070470C4870470C4870474FF001607047C3
:1059C00000000E08004000080080000800C0000829
:1059D000000001080000020800000408000006089A
:1059E0000000080800000A0800000C0870B5054611
:1059F0000E46144606F068FA184B1D602846FFF75D
:105A00007DFF174B1860174B1E60174B00221A6062
:105A1000124B1968124B1B68994215D8114B1B6821
:105A20001A680023022006F0A1FA88B90B4A13680D
:105A3000043313600B4A1368043313600A4A136873
:105A400001331360A342E3D106F056FA002070BD83
:105A500006F052FA4FF0FF30F9E700BF6421002052
:105A600060210020582100205C210020014B1B6890
:105A70005863704758300020014B1B68986370478B
:105A80005830002010B582B0094CA04204D0094C17
:105A9000A04207D002B010BD64200090064806F076
:105AA000EBFFF7E764200090044806F0E5FFF1E71C
:105AB0000054004000580040B82D00200C2E00205B
:105AC00008B50E4B984212D003F58063984210D06F
:105AD00011680B6843F400430B6011680B6823F4F2
:105AE00000430B60104606F0E9FE20B908BD044AE9
:105AF000EEE7044AECE704F009F9F7E70054004048
:105B0000B82D00200C2E002010B483B03D4B9842DD
