:020000040800F2
:100000000000022069840008951200089712000879
:10001000991200089B1200089D12000800000000C1
:1000200000000000000000000000000091650008D2
:100030009F1200080000000031660008A1120008AD
:10004000B9840008B9840008B9840008B98400089C
:10005000B9840008B9840008B7120008B984000800
:10006000B9840008C1120008CB120008B984000846
:10007000B9840008B9840008B9840008B98400086C
:10008000B9840008B9840008B9840008B98400085C
:10009000D5120008B9840008B9840008E5120008E8
:1000A000B9840008B9840008B9840008B98400083C
:1000B000B9840008B9840008B9840008B98400082C
:1000C000B9840008B9840008B9840008B98400081C
:1000D000B9840008B9840008B9840008B98400080C
:1000E000B9840008B9840008B9840008B9840008FC
:1000F000B9840008B9840008B9840008B9840008EC
:10010000B9840008B9840008B9840008B9840008DB
:10011000B9840008B9840008B9840008B9840008CB
:10012000B9840008F1120008011300081113000837
:10013000B9840008B9840008B9840008B9840008AB
:1001400021130008B9840008B9840008311300089D
:10015000B98400084113000851130008B98400084D
:10016000B9840008B9840008B9840008B98400087B
:10017000B9840008B9840008B984000800000000B0
:08018000B9840008B9840008ED
:1001900010B5054C237833B9044B13B10448AFF3C1
:1001A00000800123237010BDB40500200000000072
:1001B0008886000808B5034B1BB103490348AFF319
:1001C000008008BD00000000B805002088860008F7
:1001D00053B94AB9002908BF00281CBF4FF0FF31AE
:1001E0004FF0FF3000F074B9ADF1080C6DE904CEAA
:1001F00000F006F8DDF804E0DDE9022304B0704702
:100200002DE9F047089D04468E46002B4DD18A42C9
:10021000944669D9B2FA82F252B101FA02F3C2F1FC
:10022000200120FA01F10CFA02FC41EA030E94408D
:100230004FEA1C48210CBEFBF8F61FFA8CF708FBAE
:1002400016E341EA034306FB07F199420AD91CEB86
:10025000030306F1FF3080F01F81994240F21C81B8
:10026000023E63445B1AA4B2B3FBF8F008FB103300
:1002700044EA034400FB07F7A7420AD91CEB040435
:1002800000F1FF3380F00A81A74240F20781644405
:10029000023840EA0640E41B00261DB1D44000238A
:1002A000C5E900433146BDE8F0878B4209D9002DEE
:1002B00000F0EF800026C5E9000130463146BDE878
:1002C000F087B3FA83F6002E4AD18B4202D38242E2
:1002D00000F2F980841A61EB030301209E46002D91
:1002E000E0D0C5E9004EDDE702B9FFDEB2FA82F2E6
:1002F000002A40F09280A1EB0C014FEA1C471FFA44
:100300008CFE0126200CB1FBF7F307FB131140EA2A
:1003100001410EFB03F0884208D91CEB010103F1F7
:10032000FF3802D2884200F2CB804346091AA4B2B9
:10033000B1FBF7F007FB101144EA01440EFB00FE8D
:10034000A64508D91CEB040400F1FF3102D2A645F2
:1003500000F2BB800846A4EB0E0440EA03409CE791
:10036000C6F12007B34022FA07FC4CEA030C20FA3E
:1003700007F401FA06F31C43F9404FEA1C4900FA5E
:1003800006F3B1FBF9F8200C1FFA8CFE09FB1811DB
:1003900040EA014108FB0EF0884202FA06F20BD94E
:1003A0001CEB010108F1FF3A80F08880884240F29E
:1003B0008580A8F102086144091AA4B2B1FBF9F0E2
:1003C00009FB101144EA014100FB0EFE8E4508D9DD
:1003D0001CEB010100F1FF346CD28E456AD9023862
:1003E000614440EA0840A0FB0294A1EB0E01A14247
:1003F000C846A64656D353D05DB1B3EB080261EBB5
:100400000E0101FA07F722FA06F3F1401F43C5E98E
:10041000007100263146BDE8F087C2F12003D840C4
:100420000CFA02FC21FA03F3914001434FEA1C4706
:100430001FFA8CFEB3FBF7F007FB10360B0C43EAF8
:10044000064300FB0EF69E4204FA02F408D91CEBA8
:10045000030300F1FF382FD29E422DD902386344A6
:100460009B1B89B2B3FBF7F607FB163341EA034146
:1004700006FB0EF38B4208D91CEB010106F1FF3895
:1004800016D28B4214D9023E6144C91A46EA00468C
:1004900038E72E46284605E70646E3E61846F8E61E
:1004A0004B45A9D2B9EB020864EB0C0E0138A3E767
:1004B0004646EAE7204694E74046D1E7D0467BE748
:1004C000023B614432E7304609E76444023842E7C0
:1004D000704700BF844641EA000313F003036DD167
:1004E000403A41D351F8043B40F8043B51F8043BF7
:1004F00040F8043B51F8043B40F8043B51F8043BFE
:1005000040F8043B51F8043B40F8043B51F8043BED
:1005100040F8043B51F8043B40F8043B51F8043BDD
:1005200040F8043B51F8043B40F8043B51F8043BCD
:1005300040F8043B51F8043B40F8043B51F8043BBD
:1005400040F8043B51F8043B40F8043B51F8043BAD
:1005500040F8043B51F8043B40F8043B51F8043B9D
:1005600040F8043B403ABDD2303211D351F8043B3D
:1005700040F8043B51F8043B40F8043B51F8043B7D
:1005800040F8043B51F8043B40F8043B103AEDD2EC
:100590000C3205D351F8043B40F8043B043AF9D23D
:1005A000043208D0D2071CBF11F8013B00F8013B10
:1005B00001D30B8803806046704700BF082A13D31D
:1005C0008B078DD010F003038AD0C3F10403D21A35
:1005D000DB071CBF11F8013B00F8013B80D331F869
:1005E000023B20F8023B7BE7043AD9D3013A11F8E9
:1005F000013B00F8013BF9D20B7803704B78437054
:100600008B7883706046704700B585B000230093F7
:100610000193029303931548154A02604FF4803208
:10062000426083600361037680F82030C362114A20
:100630008262C3600122C26180F83030426101F001
:10064000E1FC68B910230093012301930023029376
:100650006946064801F002FD28B905B05DF804FBC3
:1006600000F02CFCEEE700F029FCF6E7D0050020B6
:10067000002001400100000F00B585B00023009369
:100680000193029303931548154A02604FF4803298
:10069000426083600361037680F82030C362114AB0
:1006A0008262C3600122C26180F83030426101F091
:1006B000A9FC68B908230093012301930023029346
:1006C0006946064801F0CAFC28B905B05DF804FB8C
:1006D00000F0F4FBEEE700F0F1FBF6E7180600206F
:1006E000002201400100000F00B589B000230393F0
:1006F000049305930693079303681B4A934205D01E
:100700001A4A93420FD009B05DF804FB002300930E
:10071000174B5A6C42F480725A645B6C03F480731A
:100720000093009BEFE700210191114B5A6C42F4BA
:1007300080625A645A6C02F480620192019A0291BA
:100740001A6B42F020021A631B6B03F02003029322
:10075000029B4FF4806303930323049303A905488A
:1007600002F05AF9CFE700BF00200140002201400B
:10077000003802400014024008B50B480B4B0360E0
:100780001023436000238360C360036143610376E9
:1007900043768376C3760377437701F02BFD00B968
:1007A00008BD00F08BFBFBE76406002000640040FE
:1007B00008B50D480D4B036003234360002383609D
:1007C000C3604FF4102202614FF4001242610376BD
:1007D00043768376C3760377437701F00BFD00B948
:1007E00008BD00F06BFBFBE78C06002000680040B2
:1007F00010B58AB0002305930693079308930993D5
:1008000003683D4A934204D03C4A934234D00AB034
:1008100010BD3B4A136801331360012B1FD0002425
:100820000194384B1A6B42F008021A631B6B03F0F9
:1008300008030193019B0323059302220692089368
:100840000923099305A9304802F0E6F8224606215B
:10085000142001F0B9FE142001F0EEFED7E70023CA
:100860000093284B1A6C42F000721A641B6C03F060
:1008700000730093009BD2E700230293214B1A6C74
:1008800042F080621A641B6C03F080630293029B47
:100890001B4A136801331360012B20D000240494F9
:1008A000184B1A6B42F002021A631B6B03F002032F
:1008B0000493049B60230593022306930323089368
:1008C0000923099305A9114802F0A6F8224606213A
:1008D000402001F079FE402001F0AEFE97E70023B2
:1008E0000393084B1A6C42F000721A641B6C03F0FD
:1008F00000730393039BD1E700640040006800404D
:100900006006002000380240000C02400004024053
:1009100008B50548054B036001F0B0FE00B908BDFD
:1009200000F0CCFAFBE700BFB40600200030024024
:100930000268094B9A4200D0704782B000230193AD
:10094000064B1A6B42F480521A631B6B03F48053FC
:100950000193019B02B07047003002400038024012
:1009600010B582B000240094264B1A6B42F400129A
:100970001A631A6B02F400120092009A01941A6B27
:1009800042F480021A631B6B03F480030193019B02
:10099000224605210C2001F017FE0C2001F04CFE30
:1009A000224605212F2001F00FFE2F2001F044FEEA
:1009B00022460521392001F007FE392001F03CFED6
:1009C000224621463A2001F0FFFD3A2001F034FE94
:1009D000224605213B2001F0F7FD3B2001F02CFED3
:1009E00022460521452001F0EFFD452001F024FEBF
:1009F00022460521462001F0E7FD462001F01CFEBD
:100A000002B010BD0038024008B507F0E9FA012035
:100A100005F01CFDFBE70000034B0360034B0B607C
:100A200080231360704700BFC0080020C00600206C
:100A3000034B0360034B0B604FF4807313607047EC
:100A4000140D00201409002010B588B00DF1040C1D
:100A5000074C0FCCACE80F0094E807008CE80700C7
:100A6000002101A805F0BDFC024B186008B010BDC4
:100A7000A0860008BC0600202DE9F04F8FB00024AE
:100A800009940A940B940C940D940094734B1A6B74
:100A900042F002021A631A6B02F002020092009AFC
:100AA00001941A6B42F040021A631A6B02F0400282
:100AB0000192019A02941A6B42F001021A631A6BB6
:100AC00002F001020292029A03941A6B42F00802A9
:100AD0001A631A6B02F008020392039A04941A6BC9
:100AE00042F004021A631A6B02F004020492049AA0
:100AF00005941A6B42F480721A631A6B02F48072C6
:100B00000592059A06941A6B42F020021A631A6B3A
:100B100002F020020692069A07941A6B42F08002B5
:100B20001A631A6B02F080020792079A08941A6BF4
:100B300042F010021A631B6B03F010030893089B2A
:100B4000DFF8249101224021484602F057F8DFF8EF
:100B50001C8101221021404602F050F8404F012232
:100B600041F20101384602F049F8802309930A94C2
:100B700001250B9509A93B4801F04EFF402309933D
:100B80000A950B950C9509A9484601F045FF0926E1
:100B900009964FF4041ACDF828A00B9509A94846E8
:100BA00001F03AFF072309930A940B94DFF8C0B0D1
:100BB00009A9584601F030FF09950A940B9509A937
:100BC000404601F029FF102309930A950B954FF039
:100BD0000209CDF8309009A9404601F01DFF3023ED
:100BE0000993CDF828A00B9509A9584601F014FFE8
:100BF0004FF4805309930A950B950C9509A9384633
:100C000001F00AFF09950A950B95CDF8309009A9D6
:100C1000384601F001FF22460521062001F0D4FCF0
:100C2000062001F009FD22460521304601F0CCFCEA
:100C3000304601F001FD224605210A2001F0C4FCE6
:100C40000A2001F0F9FC22460521172001F0BCFC26
:100C5000172001F0F1FC0FB0BDE8F08F0038024022
:100C60000004024000200240001802400000024040
:100C70000008024008B50B480B4B03600B4B436068
:100C800000238360C3604FF480420261436183614B
:100C9000C361036201F0C8FF00B908BD00F00EF99E
:100CA000FBE700BFC80D002000540040801A06007A
:100CB00008B50B480B4B03600B4B4360002383606C
:100CC000C3604FF48042026143618361C361036288
:100CD00001F0AAFF00B908BD00F0F0F8FBE700BF83
:100CE0001C0E002000580040801A060008B50B4872
:100CF0000B4B03600B4B436000238360C3604FF4D6
:100D00008042026143618361C361036201F08CFF31
:100D100000B908BD00F0D2F8FBE700BF700E00205C
:100D2000005C0040801A06002DE9F0418CB00023E1
:100D30000793089309930A930B930368554A9342C8
:100D400009D00446544A934229D0544A934264D06D
:100D50000CB0BDE8F08100250095514C236B43F0A9
:100D600002032363236B03F002030093009B4FF401
:100D7000407307931223089303230A9304230B93CE
:100D800007A9484801F048FE0195236C43F400137D
:100D90002364236C03F400130193019BD8E700251F
:100DA00002953F4E336B43F020033363336B03F004
:100DB00020030293029B03230793122208920A93B3
:100DC00004230B9307A9384801F026FE0395336CE2
:100DD00043F480033364336C03F480030393039B75
:100DE0003248334B03604FF06063436040238360BD
:100DF000C5604FF48063036145618561C5614FF44F
:100E000000330362456201F0B3FC18B9274B6363FA
:100E10009C639DE700F052F8F8E700250495204C0C
:100E2000236B43F004032363236B03F00403049355
:100E3000049B0595236B43F001032363236B03F0AD
:100E400001030593059B4FF4007307934FF01208BD
:100E5000CDF8208003270A9704260B9607A915488A
:100E600001F0DAFD4FF480730793CDF820800995E7
:100E70000A970B9607A9104801F0CEFD0695236C42
:100E800043F400032364236C03F400030693069BDE
:100E90005EE700BF0054004000580040005C004086
:100EA000003802400004024000140240680D002097
:100EB000B8600240000802400000024072B6FEE73F
:100EC00000B595B03022002108A807F01BFB0023D5
:100ED000039304930593069307930193204A116C9F
:100EE00041F080511164126C02F080520192019A1B
:100EF00002931C4B1A6842F480421A601B6803F488
:100F000080430293029B012308934FF4803309939B
:100F100002230E934FF480020F9206221092A82211
:100F2000119212930723139308A802F0FBFC98B9BF
:100F30000F23039302230493002305934FF4A0533C
:100F400006934FF480530793052103A802F038FF5E
:100F500020B915B05DF804FBFFF7B0FFFFF7AEFF57
:100F6000003802400070004008B500F071FFFFF744
:100F7000A7FFFFF781FDFFF7F3FCFFF745FBFFF746
:100F80007BFBFFF7F9FBFFF713FCFFF773FEFFF79F
:100F90008FFE00F01FF800F047FB00F0D7FB00F0D9
:100FA0002DFC00F083FC00F0EBFC00F069FDFFF786
:100FB0009DFE00F04DF800F06BF800F09BFD00F096
:100FC000B3FD00F0CBFDFFF7A3FCFFF73DFD05F0FF
:100FD00003FAFEE708B50A480A4B036000234360A2
:100FE0007C22826040F67F42C2600361436183617C
:100FF00003F09DF800B908BDFFF760FFFBE700BFF5
:10100000C40E00200028004000B585B000230093E6
:1010100001930293039302680A4B9A4202D005B0EF
:101020005DF804FB02230093074B0393684602F02C
:101030009DFF20B9054B0122C3F83C2EEFE7FFF7D7
:101040003DFFF7E70028004000031E000000474274
:1010500008B50D480D4B03604FF4827343600023C5
:101060008360C360036143614FF400728261C361B6
:101070000362436283620A23C36203F0BAF800B9D1
:1010800008BDFFF71BFFFBE7A40F00200030014065
:1010900008B50F480F4B03604FF482734360002381
:1010A0008360C36002220261012242614FF4007238
:1010B00082613822C2610362436283620A23C3628F
:1010C00003F097F800B908BDFFF7F8FEFBE700BF93
:1010D000FC0F0020003800402DE9F0418AB00023C9
:1010E0000593069307930893099303684F4A934225
:1010F00005D04F4A934275D00AB0BDE8F08104464E
:10110000002500954B4B5A6C42F480525A645A6C3D
:1011100002F480520092009A01951A6B42F002028A
:101120001A631A6B02F002020192019A02951A6B7D
:1011300042F001021A631B6B03F001030293029B4E
:10114000182305934FF00208CDF81880032708975D
:101150000526099605A9384801F05EFC8023059311
:10116000CDF8188007950897099605A9334801F02E
:1011700053FC3348334B03604FF0C06343608560DA
:10118000C5604FF48063036145618561C5614FF4BB
:1011900040330362456201F0EBFAE8B9284BE3649F
:1011A0009C632948294B03604FF0C0634360402390
:1011B00083600023C3604FF48062026143618361F6
:1011C000C3614FF400320262436201F0D1FA30B9D8
:1011D0001D4BA3649C638FE7FFF770FEDEE7FFF70C
:1011E0006DFEF5E700210391124B1A6C42F4804228
:1011F0001A641A6C02F480420392039A04911A6BE7
:1012000042F002021A631B6B03F002030493049B77
:101210004FF46043059302230693032308930523A9
:10122000099305A9044801F0F7FB65E70030014088
:101230000038004000380240000402400000024034
:10124000E40E002040640240440F00205864024035
:1012500000B583B0002200920D4B596C41F48041DF
:101260005964596C01F48041009100990192196C04
:1012700041F0805119641B6C03F080530193019B72
:101280000F216FF0010001F09FF903B05DF804FB3E
:1012900000380240FEE7FEE7FEE7FEE7FEE77047A4
:1012A00008B500F0EFFD06F007FC012800D108BDED
:1012B00005F0F0F9FBE708B5012001F0A7FC08BD37
:1012C00008B5082001F0A2FC08BD08B5102001F007
:1012D0009DFC08BD08B5024801F03FF808BD00BFFD
:1012E0006406002008B5202001F090FC08BD000035
:1012F00008B5024801F0A2FA08BD00BFC4120020E0
:1013000008B5024801F09AFA08BD00BFE40E0020BB
:1013100008B5024801F092FA08BD00BF440F002052
:1013200008B5024801F019F808BD00BF8C0600207E
:1013300008B5024801F018FF08BD00BFDC8B002093
:1013400008B5024801F07AFA08BD00BF2413002056
:1013500008B5024801F072FA08BD00BF041200206F
:10136000034AD2F8883043F47003C2F888307047DB
:1013700000ED00E086B00368304A93421BD0304A4B
:10138000934226D02F4A934230D02F4A93423AD0EC
:101390002E4A934244D02E4A934218D100230593FB
:1013A0002C4B5A6C42F400325A645B6C03F40033E9
:1013B0000593059B0BE000230093264B5A6C42F0EB
:1013C00001025A645B6C03F001030093009B06B0BA
:1013D0007047002301931F4B1A6C42F002021A64FB
:1013E0001B6C03F002030193019BF0E700230293BF
:1013F000184B1A6C42F004021A641B6C03F00403CD
:101400000293029BE3E700230393124B1A6C42F012
:1014100008021A641B6C03F008030393039BD6E7CE
:10142000002304930B4B5A6C42F002025A645B6C2B
:1014300003F002030493049BC9E700BF00000140CE
:101440000004004000080040000C0040000401407F
:101450000044014000380240F0B58DB000230793EE
:10146000089309930A930B930368624A934211D03D
:10147000614A934228D0614A93423FD0604A9342E6
:1014800057D0604A93426ED05F4A934200F09880F2
:101490000DB0F0BD002300935C4B1A6B42F01002BC
:1014A0001A631B6B03F010030093009B4FF4D443AB
:1014B000079302220892012309930A920B9307A92A
:1014C000534801F0A9FAE3E7002301934F4B1A6B4D
:1014D00042F004021A631B6B03F004030193019BA7
:1014E0004FF48073079302230893012209920A9311
:1014F0000B9307A9474801F08FFAC9E7002302932D
:10150000424B1A6B42F008021A631B6B03F008038C
:101510000293029B4FF48043079302230893012216
:10152000099203220A920B9307A93B4801F074FA2F
:10153000AEE700230393354B1A6B42F080021A6327
:101540001B6B03F080030393039B4FF4E05307935B
:1015500002230893012209920A930B9307A92F48AB
:1015600001F05AFA94E700210491284B1A6B42F4D7
:1015700080721A631A6B02F480720492049A0591C5
:101580001A6B42F004021A631B6B03F00403059309
:10159000059B4027079702240894012609960A9480
:1015A00003250B9507A91E4801F036FA0797089402
:1015B00009960A940B9507A9164801F02DFA67E7DA
:1015C00000230693114B1A6B42F020021A631B6B27
:1015D00003F020030693069B4023079302230893FE
:1015E000012209920A9303230B9307A90D4801F0E6
:1015F00013FA4DE7000001400004004000080040DD
:10160000000C00400004014000440140003802404A
:101610000010024000080240000C0240001C024082
:10162000002002400014024010B596B0002412942D
:101630001394149415941094119409940A940B948F
:101640000C940D940E940F942022214601A806F0CC
:1016500059FF3C483C4B0360A7234360846044F639
:101660001F63C36004614461846102F049FF002884
:101670004DD14FF48053129312A9324803F04BF826
:10168000002847D12F4802F067FF002845D10023EA
:101690001093119310A92B4803F0BCF800283FD1F8
:1016A000602309934FF47A730A9300220B920C92F1
:1016B0000D920E920F9209A9224802F0B1FF002864
:1016C00031D1042209A91F4802F0AAFF70BB0822E9
:1016D00009A91C4802F0A4FF58BB0C2209A919480B
:1016E00002F09EFF40BB00230193029303930493F7
:1016F00005934FF400520692089301A9114803F094
:10170000CFF8E0B90F48FFF7A7FE16B010BDFFF7FE
:10171000D5FBAEE7FFF7D2FBB4E7FFF7CFFBB6E7A9
:10172000FFF7CCFBBCE7FFF7C9FBCAE7FFF7C6FB37
:10173000CDE7FFF7C3FBD0E7FFF7C0FBD3E7FFF729
:10174000BDFBDFE7541000200000014000B58FB062
:1017500000230A930B930C930D9308930993019321
:101760000293039304930593069307932148224A17
:101770000260A722426083604FF6FF72C26003617D
:10178000836102F0BDFE28BB4FF480530A930AA97F
:10179000184802F0C0FF00BB164802F0DDFEF8B9A1
:1017A00000230893099308A9124803F033F8D0B92D
:1017B000602301930023029303930593082201A958
:1017C0000C4802F02DFF88B90A48FFF745FE0FB01C
:1017D0005DF804FBFFF772FBD6E7FFF76FFBDBE773
:1017E000FFF76CFBDCE7FFF769FBE1E7FFF766FB60
:1017F000EAE700BFE41000200004004000B58FB00D
:1018000000230A930B930C930D9308930993019370
:101810000293039304930593069307932148224A66
:101820000260A722426083604FF6FF72C2600361CC
:10183000836102F065FE28BB4FF480530A930AA926
:10184000184802F068FF00BB164802F085FEF8B9A0
:1018500000230893099308A9124802F0DBFFD0B9CE
:10186000602301930023029303930593082201A9A7
:101870000C4802F0D5FE88B90A48FFF7EDFD0FB01D
:101880005DF804FBFFF71AFBD6E7FFF717FBDBE772
:10189000FFF714FBDCE7FFF711FBE1E7FFF70EFBB7
:1018A000EAE700BF2C1100200008004000B58FB00F
:1018B00000230A930B930C930D93089309930193C0
:1018C0000293039304930593069307932A482B4AA4
:1018D0000260436083604FF6FF72C2600361836100
:1018E00002F00EFE002831D14FF480530A930AA96A
:1018F000214802F010FF60BB1F4802F02DFE58BBCC
:1019000000230893099308A91B4802F083FF30BB0A
:1019100060230193002202920392059201A91648C6
:1019200002F07EFEF0B904220DEB0201124802F033
:1019300077FED0B9082201A90F4802F071FEB8B9AC
:101940000D48FFF789FD0FB05DF804FBFFF7B6FA0D
:10195000CAE7FFF7B3FACFE7FFF7B0FAD0E7FFF730
:10196000ADFAD5E7FFF7AAFADDE7FFF7A7FAE1E757
:10197000FFF7A4FAE4E700BF74110020000C004058
:1019800010B596B0002412941394149415941094E6
:10199000119409940A940B940C940D940E940F9442
:1019A0002022214601A806F0ADFD3348334B0360E9
:1019B000A7234360846044F61F63C36004614461ED
:1019C000846102F09DFD002840D14FF480531293B2
:1019D00012A9294802F09FFE00283AD1264802F0B9
:1019E000BBFD002838D100231093119310A9224881
:1019F00002F010FF002832D1602309934FF47A736C
:101A00000A9300220B920C920D920E920F9209A94A
:101A1000194802F005FE28BB042209A9164802F065
:101A2000FFFD10BB002301930293039304930593DE
:101A30004FF400520692089301A90F4802F030FFBC
:101A4000B0B90D48FFF708FD16B010BDFFF736FA24
:101A5000BBE7FFF733FAC1E7FFF730FAC3E7FFF759
:101A60002DFAC9E7FFF72AFAD6E7FFF727FAD9E7F1
:101A7000FFF724FAE5E700BFBC1100200004014095
:101A800000B589B000230193029303930493059357
:101A9000069307931548164A02604360836041F23B
:101AA0008732C2600361836102F02AFDA0B90F484A
:101AB00002F052FD98B96023019300220292039232
:101AC000059201A9094802F0ABFD58B90748FFF794
:101AD000C3FC09B05DF804FBFFF7F0F9E7E7FFF797
:101AE000EDF9E8E7FFF7EAF9F0E700BF9C10002006
:101AF0000044014008B50A480A4B03604FF4E13343
:101B0000436000238360C36003610C2242618361F0
:101B1000C36102F077FF00B908BDFFF7CFF9FBE71B
:101B2000841300200010014008B50A480A4B0360E6
:101B30004FF4E133436000238360C36003610C22F0
:101B400042618361C36102F05DFF00B908BDFFF728
:101B5000B5F9FBE7C81300200048004008B50A4863
:101B60000A4B03604FF4E133436000238360C3609A
:101B700003610C2242618361C36102F043FF00B93B
:101B800008BDFFF79BF9FBE70C140020001401408F
:101B90002DE9F0418CB00446002307930893099384
:101BA0000A930B930368874A934209D0864A93426B
:101BB0005DD0864A934200F0A1800CB0BDE8F08170
:101BC00000250095824B5A6C42F010025A645A6C00
:101BD00002F010020092009A01951A6B42F0020284
:101BE0001A631A6B02F002020192019A02951A6BB3
:101BF00042F001021A631B6B03F001030293029B84
:101C0000802307934FF00208CDF8208003270A971E
:101C100007260B9607A96F4800F0FEFE4FF40073ED
:101C20000793CDF8208009950A970B9607A96A4873
:101C300000F0F2FE69486A4B03604FF000634360B6
:101C400040238360C5604FF4806303614561856113
:101C5000C5614FF480330362456200F089FD18B915
:101C60005E4B63639C63A8E7FFF728F9F8E700255C
:101C70000395574B1A6C42F480221A641A6C02F4D2
:101C800080220392039A04951A6B42F004021A63AD
:101C90001B6B03F004030493049B4FF4406307930E
:101CA0000223089303230A9307230B9307A94D48A4
:101CB00000F0B2FE4C484D4B03604FF000634360B0
:101CC0008560C5604FF48063036145618561C561CE
:101CD0004FF400330362456200F04AFD58B9424BAD
:101CE000A3639C6300220421272000F06DFC2720C1
:101CF00000F0A2FC61E7FFF7E1F8F0E700250595A9
:101D0000334B5A6C42F020025A645A6C02F02002A3
:101D10000592059A06951A6B42F040021A631B6BF6
:101D200003F040030693069B4FF48443079302237A
:101D3000089303230A9308230B9307A92C4800F068
:101D40006BFE2C482C4B03604FF020634360856092
:101D5000C5604FF48063036145618561C5614FF4DF
:101D600000330362456200F003FD28BB214BA363EF
:101D70009C632248224B03604FF020634360402362
:101D800083600023C3604FF480620261436183611A
:101D9000C3614FF480320262436200F0E9FC70B923
:101DA000164B63639C6300220521472000F00CFC66
:101DB000472000F041FC00E7FFF780F8D6E7FFF787
:101DC0007DF8EDE70010014000480040001401409C
:101DD00000380240000402400000024004120020CB
:101DE000B8640240000802406412002028600240EB
:101DF00000180240C412002028640240241300206E
:101E0000A064024010B504460E4B18784FF47A7364
:101E1000B3FBF0F30C4A1068B0FBF3F000F01AFCCF
:101E200068B90F2C01D901200AE0002221464FF0A9
:101E3000FF3000F0C9FB054B1C60002000E00120D2
:101E400010BD00BF0400002000000020080000209A
:101E500008B50B4B1A6842F400721A601A6842F413
:101E600080621A601A6842F480721A60032000F0DF
:101E700099FB0F20FFF7C6FFFFF7EAF9002008BD26
:101E8000003C0240034A1168034B1B780B4413606B
:101E9000704700BF5014002004000020014B186858
:101EA000704700BF5014002038B50446FFF7F6FF16
:101EB0000546B4F1FF3F02D0044B1B781C44FFF7EA
:101EC000EDFF401BA042FAD338BD00BF0400002044
:101ED0004A4B5A6822F440325A605A6841680A43B1
:101EE0005A600268536823F4807353600268536831
:101EF000016943EA012353600268536823F0407389
:101F000053600268536881680B43536002689368AA
:101F100023F40063936002689368C1680B43936085
:101F2000826A374B9A4257D00268936823F07063F5
:101F3000936002689368816A0B43936002689368B8
:101F400023F04053936002689368C16A0B43936027
:101F50000268936823F00203936002689368017E2D
:101F600043EA4103936090F82030002B3FD0026891
:101F7000536843F4006353600268536823F460437A
:101F8000536001684B68426A013A43EA42334B604E
:101F90000268D36A23F47003D3620168CB6AC26912
:101FA000013A43EA0253CB620268936823F4007358
:101FB00093600268936890F8301043EA412393607D
:101FC0000268936823F480639360026893684169B0
:101FD00043EA8123936070470268936823F070633B
:101FE00093600268936823F040539360B0E70268FF
:101FF000536823F400635360CAE700BF0023014025
:102000000100000F38B310B50446036C43B1236CD4
:1020100013F0100F0BD00120002384F83C3010BDCA
:10202000FEF762FB0023636484F83C30EFE7236C27
:1020300023F4885323F0020343F002032364204671
:10204000FFF746FF00206064236C23F0030343F096
:1020500001032364E0E701207047000030B482B040
:102060000023019390F83C30012B00F0BB8001234A
:1020700080F83C300B68092B41D90468E2689BB2B8
:1020800003EB43031E3B4FF0070C0CFA03F322EA69
:102090000303E3600468E2680B8803EB43031E3B21
:1020A0008D6805FA03F31343E3604B68062B3DD8B4
:1020B0000468626B03EB8303053B4FF01F0C0CFAC3
:1020C00003F322EA030363630468626B4B6803EB68
:1020D0008303053BB1F800C00CFA03F313436363B9
:1020E0000268414B9A4251D002683F4B9A4256D007
:1020F000002380F83C30184602B030BC70470468BA
:1021000022699BB203EB43034FF0070C0CFA03F375
:1021100022EA03032361046822690B8803EB43036B
:102120008D6805FA03F313432361BEE70C2B16D821
:1021300005682A6B03EB8303233B1F2404FA03F394
:1021400022EA03032B6305682A6B4B6803EB8303C6
:10215000233B0C8804FA03F313432B63C0E70568A1
:10216000EA6A03EB8303413B1F2404FA03F322EAE8
:102170000303EB620568EA6A4B6803EB8303413BA8
:102180000C8804FA03F31343EB62A9E70B68122BE4
:10219000AAD1164A536843F480035360A4E70B683E
:1021A000103B012BA4D8114A536843F40003536039
:1021B0000B68102B9CD10E4B1B6802F1467202F586
:1021C0002E3202F28332A2FB03239B0C03EB830328
:1021D0005B00019302E0019B013B0193019B002BFB
:1021E000F9D185E7022087E7002001400023014064
:1021F00000000020002800F0A18038B5044690F8C7
:102200002030D3B12268136843F001031360FFF755
:1022100045FE054623685A6812F0010F10D1FFF7FA
:102220003DFE401B0A28F5D9636A43F4003363621C
:10223000052384F82030012038BDFEF7D9FAE1E704
:102240001A6822F002021A60FFF728FE054623688A
:102250005A6812F0020F0DD0FFF720FE401B0A282B
:10226000F5D9636A43F400336362052384F82030B0
:102270000120E1E7227E012A3DD01A6822F0800287
:102280001A60637E012B3BD02268136823F0400361
:102290001360A37E012B39D02268136823F020033A
:1022A0001360E37E012B37D02268136843F01003DC
:1022B0001360237F012B35D02268136823F00803B5
:1022C0001360637F012B33D02268136823F004036B
:1022D0001360A368E26813432269134362691343DE
:1022E0006268013A21681343CB61002060620123D8
:1022F00084F82030A0E71A6842F080021A60C0E734
:102300002268136843F040031360C2E72268136831
:1023100043F020031360C4E72268136823F010031E
:102320001360C6E72268136843F008031360C8E728
:102330002268136843F004031360CAE70120704762
:1023400070477047704770477047704770477047D5
:10235000704770477047704770472DE9F84F054642
:1023600003685C69D3F804809F68D3F80CB0D3F895
:1023700010A0D3F8189014F001063BD017F0010616
:1023800016D001229A6017F0020F08D117F0040F3F
:102390000CD117F0080606D04FF4805608E0FFF77E
:1023A000CFFF002604E0FFF7CEFF01E04FF4006608
:1023B00017F4807F0DD02B684FF480729A6017F469
:1023C000007F40F0868017F4806F00F0868046F42E
:1023D000005617F4803F0DD02B684FF480329A607E
:1023E00017F4003F40F0838017F4802F00F08380C3
:1023F00046F4004614F0080F07D01BF0100F04D06D
:1024000046F400762B681022DA6014F0040F02D034
:102410001BF0080F79D114F0020F04D02B68DB6891
:1024200013F0030F78D114F0400F07D01AF0100FFB
:1024300004D046F480662B6810221A6114F0200F35
:1024400002D01AF0080F6BD114F0100F04D02B68D3
:102450001B6913F0030F6AD114F4003F02D018F087
:10246000100F68D114F4803F02D018F0080F69D122
:1024700014F4004F7AD018F0040F74D014F4807F55
:1024800004D019F0010F01D046F0010614F4007FCA
:1024900004D019F0020F01D046F0020614F4806F48
:1024A00004D019F0040F01D046F0040614F4006FB4
:1024B00059D019F0700956D0B9F1400F65D058D8ED
:1024C000B9F1200F5ED0B9F1300F42D146F02006AD
:1024D00044E02846FFF735FF7BE717F4006F02D092
:1024E00046F4804675E72846FFF72EFF71E7284639
:1024F000FFF728FF7EE717F4002F02D046F480365E
:1025000078E72846FFF721FF74E72B680822DA6096
:102510002846FFF71CFF7EE72846FFF717FF82E7F4
:102520002B6808221A612846FFF713FF8CE728461C
:10253000FFF70EFF90E72B6810225A602846FFF73E
:1025400009FF8FE72B6808225A602846FFF703FF30
:102550008EE7B9F1100F01D146F008062A68936999
:1025600023F0700393612B6804225A609EB9BDE882
:10257000F88FB9F1500F0BD0B9F1600FEED146F4DE
:102580008076EBE746F01006E8E746F04006E5E720
:1025900046F08006E2E76B6A1E436E622846FFF74C
:1025A000DBFEE4E7074AD36823F4E0631B041B0C5B
:1025B000000200F4E060034343F0BF6343F40033E0
:1025C000D360704700ED00E000B5194BDB68C3F342
:1025D0000223C3F1070CBCF1040F28BF4FF0040C19
:1025E00003F1040EBEF1060F18D9033B4FF0FF3E76
:1025F0000EFA0CFC21EA0C0199400EFA03F322EAD0
:102600000303194300280BDB0901C9B200F1604044
:1026100000F5614080F800135DF804FB0023E5E756
:1026200000F00F000901C9B2024B1954F4E700BFD2
:1026300000ED00E014ED00E0002807DB00F01F02D1
:10264000400901239340024A42F82030704700BFFE
:1026500000E100E00138B0F1807F0BD24FF0E023C1
:102660005861054AF02182F8231000209861072262
:102670001A6170470120704700ED00E058B110B5B5
:10268000044643791BB101236371002010BD03711F
:10269000FEF74EF9F7E701207047000010B4036819
:1026A000D9B210390C4AA2FB014212090B4CA25CB0
:1026B000C2655F2909D923F47F7323F00303043330
:1026C0008365806D5DF8044B704723F47F7323F0BE
:1026D00003038365F5E700BFABAAAAAADC8600085E
:1026E000836A826992B9012B0AD0022B02D00BB106
:1026F00000207047C36A13F0807F28D10020704704
:10270000C36AB3F1C07F24D000207047B2F5005FE8
:1027100009D0022B25D9032B25D1C36A13F0807F62
:1027200023D100207047032B03D8DFE803F0140403
:10273000140A00207047C36A13F0807F0DD1002077
:102740007047C36AB3F1C07F09D0002070470120F1
:102750007047012070470120704701207047012019
:10276000704701207047002070470120704700002B
:1027700070B50446FFF792FB002C5BD005460223A0
:1027800084F83530002384F834302268136823F04D
:102790000103136023681A6812F0010F0AD0FFF7D3
:1027A0007DFB431B052BF5D920236365032084F8AB
:1027B000350070BD1A68204810406168A2680A435D
:1027C000E1680A4321690A4361690A43A1690A432E
:1027D000E1690A43216A0A430243616A04291ED05F
:1027E0001A602668756925F00705636A1D43042B86
:1027F00007D1A36A1D43E36A1BB12046FFF770FFB0
:1028000090B975612046FFF749FFE26D3F23934081
:10281000836000206065012384F83530C9E7E16AF0
:10282000206B01430A43DBE740236365012084F802
:102830003500BEE70120BCE73F8010F0F0B583B063
:10284000044600230193724B1D68724BA3FB0535B0
:10285000AD0A876D3E68C26D08239340334210D0A5
:1028600003681A6812F0040F0BD01A6822F00402F1
:102870001A60C26D08239340BB60436D43F00103AF
:102880004365E26D01239340334209D022685269C7
:1028900012F0800F04D0BB60636D43F002036365E8
:1028A000E26D04239340334209D02268126812F08B
:1028B000020F04D0BB60636D43F004036365E26DF7
:1028C00010239340334224D02268126812F0080F7C
:1028D0001FD0BB6023681A6812F4802F0DD01B68CC
:1028E00013F4002F04D1236C9BB12046984710E0CD
:1028F000A36C73B1204698470BE01A6812F4807FEE
:1029000003D11A6822F008021A60236C0BB120462A
:102910009847E26D20239340334255D022681268D5
:1029200012F0100F50D0BB6094F83530DBB2052B9D
:102930000ED023681A6812F4802F33D01B6813F46A
:10294000002F2AD1636C002B3ED0204698473BE0F5
:102950002268136823F0160313602268536923F07A
:1029600080035361236CA3B12268136823F008032A
:102970001360E26D3F239340BB60012384F8353040
:10298000002384F83430236D002B3FD02046984735
:102990003CE0A36C002BE7D1EBE7E36BA3B120464F
:1029A000984711E01A6812F4807F09D11A6822F062
:1029B00010021A60012384F83530002384F8343083
:1029C000E36B0BB120469847636DFBB1636D13F069
:1029D000010F17D0052384F835302268136823F0DF
:1029E00001031360019B01330193AB4204D82368B8
:1029F0001B6813F0010FF5D1012384F83530002353
:102A000084F83430E36C0BB12046984703B0F0BD36
:102A100000000020B5814E1B00230F2B00F2E48044
:102A200070B582B060E085685E000324B44025EA9A
:102A30000405CC68B4402C438460456825EA02054F
:102A40004C68C4F300129A402A4342605AE0DC0802
:102A5000083450F8246003F0070295000F22AA40C2
:102A600026EA020E0A69AA4042EA0E0240F8242031
:102A70005CE0072200E0002202FA0EF22A43023450
:102A80005A4D45F824205A4A14686FEA0C0224EA89
:102A90000C054E6816F4803F01D04CEA0405544CF6
:102AA0002560646802EA04054E6816F4003F01D010
:102AB0004CEA04054E4C6560A46802EA04054E68C1
:102AC00016F4801F01D04CEA0405494CA560E46867
:102AD00022404D6815F4001F01D04CEA0402444C1A
:102AE000E26001330F2B7DD801229A400C6804EA82
:102AF000020C32EA0404F4D14C6804F00304013CF3
:102B0000012C90D94A6802F00302032A09D0C46854
:102B10005D000322AA4024EA02048A68AA402243F4
:102B2000C2604A6802F00302022A90D004684FEAA9
:102B3000430E032202FA0EF224EA02044A6802F06B
:102B4000030202FA0EF2224302604A6812F4403F86
:102B5000C7D000220192274A546C44F48044546444
:102B6000526C02F480420192019A9C08A51C1F4AF3
:102B700052F8255003F003024FEA820E0F2202FAA8
:102B80000EF225EA02051C4A90423FF474AF02F5AA
:102B9000806290421AD002F58062904218D002F50D
:102BA0008062904216D002F58062904214D002F505
:102BB0008062904212D002F58062904210D002F5FD
:102BC000806290423FF455AF082255E7012253E757
:102BD000022251E703224FE704224DE705224BE78B
:102BE000062249E702B070BD704700BF00380140BF
:102BF000003C014000380240000002400AB18161FF
:102C000070470904816170477047000008B5054BA3
:102C10005B69034200D108BD024B5861FFF7F4FF26
:102C2000F9E700BF003C0140002800F0CC8070B5FF
:102C3000044690F83D30002B77D0242384F83D30B3
:102C40002268136823F0010313602268136843F4B9
:102C5000004313602268136823F40043136001F0FB
:102C600065F962685A4B9A4264D85A4B98428CBFB5
:102C700000230123002B40F0A8805749A1FB00311D
:102C80008B0C25686A6822F03F0242EA91426A6032
:102C900021680A6A22F03F0266684D4DAE424FD865
:102CA000013313430B622168CA6922F44F4222F0B8
:102CB000FF026668464B9E424CD8431E7600B3FB2B
:102CC000F6F3013340F6FC70034278D0C3F30B03F4
:102CD0001343CB6121680B6823F0C003E269206ACB
:102CE000024313430B6021688B6823F4034323F0F2
:102CF000FF032269E068024313438B602168CB68BD
:102D000023F0FF036269A06902431343CB6022688A
:102D1000136843F00103136000202064202384F82B
:102D20003D30206384F83E0070BD80F83C30FDF7F4
:102D3000FBFF82E7294B98428CBF0023012399E7D0
:102D40004FF4967505FB03F3254DA5FB03539B0933
:102D50000133A6E7A368BBB9451E06EB460CB5FBDD
:102D6000FCF50135C5F30B05B5FA85F56D0945BBD5
:102D7000C3B9013806EB4603B0FBF3F30133C3F3E9
:102D80000B0343F40043A3E7451E06EB860C0CEB54
:102D90008C0CB5FBFCF50135C5F30B05B5FA85F5D3
:102DA0006D09E4E7013806EB860303EB8303B0FB10
:102DB000F3F30133C3F30B0343F4404388E70423E5
:102DC00086E7012384E7012070470120ACE700BFBC
:102DD000A08601007F841E0083DE1B43FF083D00A8
:102DE000D34D62102DE9F04383B0D0F80080C1EBE1
:102DF000C10300EB83035A6D1B6D9A4254D80746FA
:102E00000C469B1AC1EBC10200EB8202526C9A4243
:102E100000D31A4602F103094FEA990915E006F1B9
:102E200003094FEA9909C4EBC40507EB8505A96CB2
:102E30003B7C0093B3B2E2B2404602F05BF9AB6C6C
:102E40003344AB646B6D33446B6508EB441303F59B
:102E500010639B699BB24B4512D3C4EBC40207EBD2
:102E60008202516D136D99420AD24BB15B1AC4EBC9
:102E7000C40207EB8202566C9E42D0D31E46CEE7B8
:102E8000C4EBC40007EB80073A6D7B6D9A420FD804
:102E900004F00F040123A340D8F8344824EA0304C3
:102EA000C8F83448002000E0012003B0BDE8F083FA
:102EB0000020FAE770B58AB0002800F0908005463F
:102EC000046890F8BD333BB3032385F8BD33E36B4F
:102ED00013F4807F01D100232B61286801F0A6FE46
:102EE0002C4654F8106BEC460FCCACE80F000FCC1E
:102EF000ACE80F0094E803008CE803002B1D0ECB18
:102F0000304601F0D5FD044658B1022385F8BD33A3
:102F1000012420460AB070BD80F8BC3305F04CF99E
:102F2000D2E70021286802F0FFFA234616E0C3EB3F
:102F3000C30205EB8202012182F83D1082F83C3089
:102F4000A2F84230002182F83F1051649164C3EB33
:102F5000C30205EB820211650133DBB269688B4263
:102F6000E5D316E0C4EBC40305EB8303002283F82A
:102F7000FD2183F8FC4183F8FF21C3F80422C3F844
:102F80000822C4EBC40305EB8303C3F81022013409
:102F9000E4B2A142E6D82C4654F8106BEC460FCCB4
:102FA000ACE80F000FCCACE80F0094E803008CE80D
:102FB00003002B1D0ECB304601F074FE044620B1F9
:102FC000022385F8BD330124A3E7002385F83830B8
:102FD000012385F8BD33286802F063FA99E70124DC
:102FE00097E7026890F8BC33012B19D010B504465E
:102FF000012380F8BC33836A012B09D0206801F0DB
:103000000FFE206802F03FFA002084F8BC0310BDD8
:103010008369012BF2D0936B43F480339363EDE724
:103020000220704770B504460D460068066C00EB40
:10303000411303F530639A682169012911D034499D
:103040008E424ED03DB9C5EBC50304EB8303D3F8E4
:103050001032002B56D0E9B2204605F0F7F80020D8
:1030600070BD12F0080F09D02A498E42F7D912F428
:10307000004FF4D04FF400429A60F0E712F0200FB6
:1030800002D020229A60EAE712F0280FE7D1214906
:103090008E4206D912F4004F03D04FF400429A60DA
:1030A000DDE7C5EBC50204EB8202D2F804121B690E
:1030B000C3F31203CB1AC2F81432D2F808320B440D
:1030C000C2F8083215B9D2F8103223B1E9B220465D
:1030D00005F0BCF8C3E704F57172012102F066FA4D
:1030E000F4E712F4004F03D04FF400429A60B6E7C1
:1030F00012F0200F01D020229A60E9B2204605F09C
:10310000A5F8ACE704F57172002102F04FFAA2E7CE
:103110000A31544F0A30544F38B5044603681D6CC9
:1031200003EB4113D3F8081B0E4A954207D903F568
:10313000306311F4004F02D04FF400429A602046F1
:1031400005F07CF8074B9D4202D92369012B01D081
:10315000002038BD04F571720121206802F026FAC2
:10316000F6E700BF0A30544F2DE9F84F04460568D2
:10317000284602F0D5F908B1BDE8F88F0646206868
:1031800002F09DF90028F7D0206802F098F910F0BD
:10319000020F04D02268536903F0020353612068D0
:1031A00002F08DF910F0100F13D02268936923F00C
:1031B000100393612F6A07F00F08C7F34343022BF4
:1031C00068D0062B00F084802268936943F01003D6
:1031D0009361206802F073F910F4002F40F08A80A8
:1031E000206802F06CF910F4802F40F0CC80206849
:1031F00002F065F90028C0F23681206802F05FF91C
:1032000010F4006F0AD0D5F8083813F0010F40F021
:1032100044812268536903F400635361206802F01B
:103220004EF910F4805F40F03C81206802F047F9CD
:1032300010F4005F40F09181206802F040F910F036
:10324000080F40F0A281206802F039F910F4801FC5
:1032500040F0A481206802F032F910F4001F40F021
:10326000A781206802F02BF910F0804F40F0AA816E
:10327000206802F024F910F0040F3FF47DAF2368BA
:103280005D6815F0040F40F0A681226853682B4357
:10329000536071E747F6F0731F4295D04FEA171B52
:1032A000C8EBC80904EB8909C7F30A12D9F8081258
:1032B000284602F053F8CBF30A02D9F80832134437
:1032C000C9F80832D9F814321A44C9F814227BE735
:1032D000082204F57171284602F040F8C7F30A1776
:1032E000C8EBC80204EB8202D2F814321F44C2F8C1
:1032F000147269E7206802F0E6F80746B04616E067
:1033000005EB48130122C3F8082B41462046FFF77E
:1033100089FE1BE005EB48130822C3F8082B414641
:103320002046FFF7F9FE14E008F101087F08002F9E
:103330003FF456AF17F0010FF6D05FFA88F120681E
:1033400002F0D1F8814610F0010FD9D119F0080F21
:10335000E0D119F0100F04D005EB48131022C3F888
:10336000082B19F0200F04D005EB48132022C3F8D6
:10337000082B19F4005FD7D005EB48134FF4005227
:10338000C3F8082BD0E7206802F0A5F80746B0463E
:1033900029E05146204604F065FF19F0080F04D0DB
:1033A00005EB48130822C3F8082919F0100F04D0C0
:1033B00005EB48131022C3F8082919F0400F04D078
:1033C00005EB48134022C3F8082919F0020F04D076
:1033D00005EB48130222C3F8082919F0800F3DD1EC
:1033E00008F101087F08002F3FF401AF17F0010F2B
:1033F000F6D05FFA88FA5146206802F07DF88146DF
:1034000010F0010FC9D008F00F03012101FA03F2F7
:10341000D5F8343823EA0203C5F8343805EB4813ED
:10342000C3F8081923698B42B3D1C8EBC80304EB76
:103430008303596C9A6C0A449A64B8F1000FA8D1BE
:10344000C8EBC80304EB83031B6D002BA1D104F56B
:1034500071720121206802F0A9F89AE741462046DE
:10346000FFF7C0FCBCE7D5F8043823F00103C5F82A
:10347000043894F8F433012B08D0204604F032FFCE
:103480002268536903F000435361B6E6002184F8D3
:10349000F413204600F045FAF2E7204604F00AFF54
:1034A000B7E605F500677B6823F001037B60102118
:1034B000206801F0C1FB20E005EB46134FF67F3199
:1034C000C3F80819D3F8002922F40012C3F8002920
:1034D000D3F8002942F00062C3F80029C3F8081BA2
:1034E000D3F8002B22F40012C3F8002BD3F8002BE2
:1034F00042F00062C3F8002B01366368B342DBD8A8
:10350000FB6943F00113FB61236BDBB1D7F8843017
:1035100043F00B03C7F884307B6C43F00B037B64F0
:10352000D5F8003823F4FE63C5F8003804F571724D
:10353000217C206802F03AF82268536903F4805332
:10354000536172E67B6943F4005343F02B037B61C4
:103550003B6943F00B033B61E2E7206802F015F89A
:10356000206801F067FCE060256800F0D9FC0146A6
:10357000227B284601F0E2FA204604F084FE22680D
:10358000536903F40053536156E6204604F075FE78
:103590002268536903F00803536154E60021204672
:1035A00004F0ACFE2268536903F48013536151E6C2
:1035B0000021204604F09CFE2268536903F40013A6
:1035C00053614EE6204604F09FFE2268536903F0E3
:1035D000804353614CE6204604F09CFE55E690F88B
:1035E000BC33012B0DD010B50446012380F8BC3349
:1035F00080F83810006801F036FF002084F8BC0322
:1036000010BD0220704738B505468C4611F0800F7A
:1036100029D101F00F0ECEEBCE04A40004F5FC740A
:103620000444211DCEEBCE0E00EB8E0E00208EF852
:10363000FD010CF00F0C81F800C08A60CB704A7855
:103640000AB1A1F806C0022B1DD095F8BC33012B9E
:103650001CD0012385F8BC33286801F0FCFB002056
:1036600085F8BC0338BD01F00F00C0EBC001890034
:10367000383129440431C0EBC00005EB800001243F
:1036800080F83D40D5E700230B71DEE70220E9E733
:1036900010B504460A4611F0800F20D101F00F004A
:1036A000C0EBC0039B0003F5FC732344191DC0EB62
:1036B000C00004EB8000002380F8FD3102F00F020F
:1036C0000A7094F8BC33012B19D0012384F8BC3361
:1036D000206801F00FFC002084F8BC0310BD01F04D
:1036E0000F00C0EBC0039B0038332344191DC0EB0F
:1036F000C00004EB8000012380F83D30DEE70220AB
:10370000ECE710B501F00F04C4EBC401890001F52A
:10371000FC7101440431C4EBC40C00EB8C0CCCF8FC
:103720000822CCF810320023CCF814328CF8FD318A
:103730008CF8FC410369012B06D064B9DAB2006849
:1037400001F048FC002010BDC4EBC40C00EB8C0C55
:10375000CCF80C22F1E7DAB2006801F0E3FCF1E703
:1037600001F00F01C1EBC10100EB8101D1F814029E
:10377000704710B501F00F04C4EBC4018900383163
:1037800001440431C4EBC40C00EB8C0CCCF8482091
:10379000CCF850300023CCF8543001238CF83D3065
:1037A0008CF83C400369012B06D064B9DAB200689A
:1037B00001F010FC002010BDC4EBC40C00EB8C0C1D
:1037C000CCF84C20F1E7DAB2006801F0ABFCF1E78D
:1037D00038B501F00F054268954239D804460B46CA
:1037E00011F0800F1FD1C1EBC101890001F5FC71FF
:1037F00001440431C3EBC30300EB8303002283F8CD
:10380000FD2101238B700D7094F8BC33012B21D066
:10381000012384F8BC33206801F0CAFD8DB100207B
:1038200084F8BC0338BDC5EBC501890038310144BB
:103830000431C5EBC50300EB8303012283F83D206F
:10384000DFE704F57172217C206801F0AFFEE6E746
:103850000120E7E70220E5E701F00F034268934209
:1038600031D810B5044611F0800F1ED1C3EBC3014F
:10387000890001F5FC7101440431C3EBC30200EB84
:103880008202002082F8FD0100228A700B7094F8F9
:10389000BC33012B19D0012384F8BC33206801F01C
:1038A000B4FD002084F8BC0310BDC3EBC301890044
:1038B000383101440431C3EBC30200EB8202012022
:1038C00082F83D00E0E7012070470220ECE710B4E9
:1038D0000468606A31B940EA0240A06200205DF8E5
:1038E000044B70478C46A36A00EB1340002308E0AA
:1038F00003F1400104EB8101496800EB1140013301
:10390000DBB20CF1FF318B42F2D340EA02400CF102
:103910003F0104EB81014860E0E703685962002041
:1039200070477047002800F0E08170B582B004460F
:10393000036813F0010F3BD09F4B9B6803F00C030F
:10394000042B2CD09C4B9B6803F00C03082B21D03C
:103950006368B3F5803F4FD0B3F5A02F52D0964B9C
:103960001A6822F480321A601A6822F480221A60DF
:103970006368002B50D0FEF791FA05468E4B1B680A
:1039800013F4003F14D1FEF789FA401B6428F5D9DF
:103990000320B1E1884B5B6813F4800FD8D0864BCD
:1039A0001B6813F4003F03D06368002B00F09F8175
:1039B000236813F0020F54D07F4B9B6813F00C0F59
:1039C0003ED07D4B9B6803F00C03082B33D0E3689B
:1039D000002B68D0794B01221A60FEF75FFA05468A
:1039E000754B1B6813F0020F54D1FEF757FA401BBA
:1039F0000228F5D903207FE16F4A136843F480332E
:103A00001360B5E76C4B1A6842F480221A601A689A
:103A100042F480321A60ABE7FEF740FA0546664B87
:103A20001B6813F4003FC3D0FEF738FA401B64282C
:103A3000F5D9032060E1604B5B6813F4800FC6D1B9
:103A40005D4B1B6813F0020F03D0E368012B40F0BD
:103A50005081594A136823F0F803216943EAC103EE
:103A60001360236813F0080F42D063696BB3534BA4
:103A70000122C3F8802EFEF711FA05464E4B5B6F0C
:103A800013F0020F34D1FEF709FA401B0228F5D9D2
:103A9000032031E1484A136823F0F803216943EA1F
:103AA000C1031360DDE7454B00221A60FEF7F6F90B
:103AB0000546414B1B6813F0020FD2D0FEF7EEF91A
:103AC000401B0228F5D9032016E13C4B0022C3F825
:103AD000802EFEF7E3F90546374B5B6F13F0020FBC
:103AE00006D0FEF7DBF9401B0228F5D9032003E1DD
:103AF000236813F0040F77D02F4B1B6C13F0805FFB
:103B000033D1002301932C4B1A6C42F080521A647B
:103B10001B6C03F080530193019B0125284B1B680C
:103B200013F4807F23D0A368012B34D0052B38D029
:103B3000214B1A6F22F001021A671A6F22F0040259
:103B40001A67A368002B3DD0FEF7A8F906461A4B6A
:103B50001B6F13F0020F46D1FEF7A0F9801B41F254
:103B600088339842F3D90320C6E00025D6E7144AEB
:103B7000136843F480731360FEF790F90646104B08
:103B80001B6813F4807FCED1FEF788F9801B0228D2
:103B9000F5D90320B0E0084A136F43F0010313671F
:103BA000CFE7054B1A6F42F004021A671A6F42F012
:103BB00001021A67C5E700BF003802400000474213
:103BC00000700040FEF76AF90646524B1B6F13F077
:103BD000020F08D0FEF762F9801B41F28833984249
:103BE000F3D9032088E0EDB9A369002B00F08380AE
:103BF000484A926802F00C02082A51D0022B17D0D2
:103C0000454B00221A66FEF749F90446414B1B68F2
:103C100013F0007F42D0FEF741F9001B0228F5D9CE
:103C2000032069E03B4A136C23F080531364DBE705
:103C3000394B00221A66FEF731F90546354B1B68F1
:103C400013F0007F06D0FEF729F9401B0228F5D9B2
:103C5000032051E0E369226A1343626A43EA821354
:103C6000A26A5208013A43EA0243E26A43EA026363
:103C7000284A5360284B01221A66FEF70FF90446C2
:103C8000244B1B6813F0007F06D1FEF707F9001BD9
:103C90000228F5D903202FE000202DE000202BE0A2
:103CA000012B2BD01B4B5B6803F48001E26991422E
:103CB00026D103F03F02216A8A4223D1616A47F686
:103CC000C0721A40B2EB811F1ED103F44031A26AC8
:103CD0005208013AB1EB024F18D103F07063E26A67
:103CE000B3EB026F14D1002006E0012070470120E1
:103CF00002E0012000E0002002B070BD0120FBE7DF
:103D00000120F9E70120F7E70120F5E70120F3E7BB
:103D10000120F1E7003802400000474208B5254B7A
:103D20009B6803F00C03042B3FD0082B3FD1214BA1
:103D30005A6802F03F025B6813F4800F12D01D4BEB
:103D40005968C1F388111C480023A1FB0001FCF74E
:103D50003FFA184B5B68C3F3014301335B00B0FBD0
:103D6000F3F025E0134B5968C1F3881C4FEA4C115E
:103D7000B1EB0C006EEB0E0E4FEA8E1343EA90632C
:103D80008101091A63EB0E03DB0043EA5173C9009A
:103D900011EB0C0C43F10003990200234FEA8C2035
:103DA00041EA9C51FCF714FAD3E7034800E00348CA
:103DB00008BD00BF00380240001BB7000024F4001B
:103DC000002800F09B8070B50D4604464F4B1B68E1
:103DD00003F007038B4208D2CBB24C4A137013682E
:103DE00003F007038B4240F08B80236813F0020F2F
:103DF00017D013F0040F04D0454A936843F4E053FE
:103E00009360236813F0080F04D0414A936843F489
:103E1000604393603E4A936823F0F003A1680B432C
:103E20009360236813F0010F32D06368012B21D017
:103E30009A1E012A25D9364A126812F0020F61D063
:103E400033498A6822F0030213438B60FEF726F899
:103E500006462F4B9B6803F00C036268B3EB820F9E
:103E600016D0FEF71BF8801B41F288339842F0D938
:103E7000032042E0264A126812F4003FE0D10120FC
:103E80003BE0234A126812F0007FD9D1012034E0D0
:103E90001E4B1B6803F00703AB4207D9EAB21B4B6A
:103EA0001A701B6803F00703AB422DD1236813F08F
:103EB000040F06D0164A936823F4E053E1680B43DD
:103EC0009360236813F0080F07D0114A936823F416
:103ED0006043216943EAC1039360FFF71FFF0C4B66
:103EE0009B68C3F303130B4AD35CD8400A4B18609A
:103EF0000A4B1868FDF786FF002070BD012070474F
:103F00000120FAE70120F8E70120F6E7003C024033
:103F100000380240C486000800000020080000208D
:103F2000014B1868704700BF0000002008B5FFF77C
:103F3000F7FF044B9B68C3F38223034AD35CD8404A
:103F400008BD00BF00380240D486000808B5FFF75E
:103F5000E7FF044B9B68C3F34233034AD35CD8406A
:103F600008BD00BF00380240D486000830B583B0D9
:103F70000446036813F0050F06D1236813F0020FFF
:103F80002ED1002003B030BD4A4B00229A66FDF7C7
:103F900085FF0546484B1B6813F0006F06D0FDF700
:103FA0007DFF431B022BF5D90320EBE76268A36872
:103FB0001B0743EA8213404AC2F884303D4B01227A
:103FC0009A66FDF76BFF05463B4B1B6813F0006FCD
:103FD000D3D1FDF763FF431B022BF5D90320D1E7B3
:103FE00000230193344B1A6C42F080521A641B6C0C
:103FF00003F080530193019B304A136843F48073AC
:104000001360FDF74BFF05462C4B1B6813F4807FB4
:1040100006D1FDF743FF431B022BF5D90320B1E77F
:10402000254B1B6F13F4407314D0E26802F4407206
:104030009A420FD0204B1A6F22F440721D49012082
:10404000C1F8400E0020C1F8400E1A671B6F13F034
:10405000010F13D1E36803F44072B2F5407F1ED024
:10406000154A936823F4F813936013490B6FE268C1
:10407000C2F30B0213430B67002083E7FDF70EFF2B
:1040800005460D4B1B6F13F0020FE3D1FDF706FF42
:10409000401B41F288339842F3D9032072E7064966
:1040A0008A6822F4F81223F0704323F44073134318
:1040B0008B60DAE7000047420038024000700040A1
:1040C00038B504460268D36823F0A003D360FDF737
:1040D000E5FE05462368DB6813F0200F07D1FDF7E6
:1040E000DDFE401BB0F57A7FF4D9032000E000200C
:1040F00038BD38B50368DA6812F0400F01D00020EF
:1041000038BD04464FF0FF32DA60FDF7C7FE0546C2
:104110002368DB6813F0400F07D1FDF7BFFE431B98
:10412000B3F57A7FF4D90320EAE70020E8E738B551
:1041300000285CD00446437F002B41D002236377E4
:104140002368CA225A62236853225A622046FFF724
:10415000D0FF0546002837D12268936823F4E00396
:1041600023F04003936021688A68636820690343F1
:104170006069034313438B602368E2681A61226815
:104180001369A16843EA014313612268D36823F0ED
:104190008003D36023689B6813F0200F1BD0226834
:1041A000136C23F4802313642268136CA1690B43FE
:1041B00013642368FF225A6201236377284638BDBF
:1041C0000377FCF721FFB9E72368FF225A62042333
:1041D00063770125F2E72046FFF772FF0028DED063
:1041E0002368FF225A62042363770125E6E701254D
:1041F000E4E700285AD010B50446436A33B943684F
:10420000B3F5827F05D00023C36102E00023036180
:1042100043610023A36294F85130002B40D0022365
:1042200084F851302268136823F0400313606368F8
:1042300003F48273A26802F404421343E26802F4B6
:1042400000621343226902F002021343626902F022
:1042500001021343A26902F400721343E26902F0FF
:1042600038021343226A02F080021343A26A02F466
:104270000052216813430B60638B03F00403626AEE
:1042800002F01002216813434B602268D36923F4C3
:104290000063D36100206065012384F8513010BDB4
:1042A00084F850302046FCF717FFB8E7012070472C
:1042B00030B4036A23F001030362036A426884692D
:1042C00024F073040D682C4323F0020C8B6843EA3E
:1042D0000C03104DA84203D005F58065A84205D116
:1042E00023F00803CD682B4323F00403094DA842B3
:1042F00003D005F58065A84205D122F440724D69CE
:104300002A438D692A43426084614A68426303629A
:1043100030BC70470000014030B4036A23F480735E
:104320000362036A4268C46924F0730C0C6844EAAF
:104330000C0523F400738C6843EA0423114CA0425B
:1043400003D004F58064A04206D123F40063CC6856
:1043500043EA042323F480630A4CA04203D004F50B
:104360008064A04207D122F440524C6942EA041210
:104370008C6942EA04124260C5614A68C263036202
:1043800030BC70470000014030B4036A23F480530E
:104390000362036A4468C26922F4E6420D6842EA95
:1043A000052223F400538D6843EA0533094DA842E2
:1043B00003D005F58065A84204D124F480444D69FA
:1043C00044EA85144460C2614A680264036230BCF6
:1043D000704700BF0000014010B4036A046A24F073
:1043E00001040462846924F0F00C4CEA021223F008
:1043F0000A030B43826103625DF8044B704710B4FB
:10440000046A24F0100404628469036A24F4704C82
:104410004CEA023223F0A00343EA011382610362F3
:104420005DF8044B7047836823F070030B4343F03F
:1044300007038360704770470368304A904212D088
:10444000B0F1804F0FD0A2F57C4290420BD002F524
:104450008062904207D002F58062904203D002F55C
:104460007842904203D123F070034A681343234AF1
:1044700090422AD0B0F1804F27D0A2F57C429042E2
:1044800023D002F5806290421FD002F580629042F4
:104490001BD002F57842904217D002F5705290423C
:1044A00013D002F5806290420FD002F580629042F4
:1044B0000BD0A2F59832904207D002F5806290426C
:1044C00003D002F58062904203D123F44073CA689E
:1044D000134323F080034A69134303608B68C3626C
:1044E0000B688362054B984203D003F580639842C2
:1044F00001D10B6903630123436170470000014050
:1045000040B310B5044690F83D30F3B1022384F86F
:104510003D30214651F8040BFFF78EFF012384F84C
:10452000463084F83E3084F83F3084F8403084F8D8
:10453000413084F8423084F8433084F8443084F8C1
:10454000453084F83D30002010BD80F83C30FCF749
:1045500011FFDBE70120704740B310B5044690F827
:104560003D30F3B1022384F83D30214651F8040B6D
:10457000FFF762FF012384F8463084F83E3084F868
:104580003F3084F8403084F8413084F8423084F879
:10459000433084F8443084F8453084F83D300020BE
:1045A00010BD80F83C30FFF746FFDBE70120704785
:1045B00030B4036A23F010030362036A446882691B
:1045C00022F4E6420D6842EA052223F020038D68BA
:1045D00043EA0513114DA84203D005F58065A842B2
:1045E00006D123F08003CD6843EA051323F040038E
:1045F0000A4DA84203D005F58065A84207D124F4EE
:1046000040644D6944EA85048D6944EA8504446048
:1046100082614A688263036230BC704700000140D7
:1046200038B590F83C30012B66D004460D46012386
:1046300080F83C300C2A5AD8DFE802F00759595963
:104640001B5959593059595944000068FFF730FE39
:104650002268936943F0080393612268936923F009
:10466000040393612268936929690B4393610020D5
:104670003EE00068FFF79CFF2268936943F4006303
:1046800093612268936923F480639361226893693C
:10469000296943EA01239361002029E00068FFF7BC
:1046A0003BFE2268D36943F00803D3612268D369D3
:1046B00023F00403D3612268D36929690B43D361D2
:1046C000002015E00068FFF75FFE2268D36943F41D
:1046D0000063D3612268D36923F48063D3612268C5
:1046E000D369296943EA0123D361002000E0012056
:1046F000002384F83C3038BD0220FCE710B4846805
:1047000024F47F4C42EA03220A4342EA0C0282600C
:104710005DF8044B704790F83C30012B78D010B511
:104720000446012380F83C30022380F83D300268C3
:10473000936823F47F4323F0770393600B68602B27
:104740004CD029D8402B54D00CD9502B22D1CA6838
:1047500049680068FFF740FE50212068FFF763FEBC
:10476000002005E0202B0DD009D9302B0AD00120E4
:10477000012384F83D30002384F83C3010BD0BB198
:10478000102B05D119462068FFF74DFE0020EFE7FA
:104790000120EDE70120EBE7B3F5805F34D0B3F5FE
:1047A000005F0CD1CB684A6889680068FFF7A6FFF4
:1047B0002268936843F4804393600020D8E7702B0D
:1047C00024D1CB684A6889680068FFF797FF2268A0
:1047D000936843F0770393600020C9E7CA6849688B
:1047E0000068FFF70CFE60212068FFF71CFE002028
:1047F000BEE7CA6849680068FFF7EEFD40212068FF
:10480000FFF711FE0020B3E70020B1E70120AFE77A
:104810000220704790F83C30012B3DD010B40123AA
:1048200080F83C30022380F83D3003685A689C6869
:1048300022F0700C0A6842EA0C025A600368174AB8
:1048400093421AD0B3F1804F17D0A2F57C42934225
:1048500013D002F5806293420FD002F5806293423A
:104860000BD002F57842934207D002F57052934282
:1048700003D0A2F59432934204D124F080044A6814
:1048800014439C60012380F83D30002380F83C30C5
:1048900018465DF8044B7047022070470000014045
:1048A00090F83C30012B22D0012380F83C30CB68BB
:1048B00023F440738A68134323F480634A681343E4
:1048C00023F400630A68134323F480530A691343F3
:1048D00023F400534A69134323F48043CA69134302
:1048E00002685364002380F83C3018467047022069
:1048F0007047000038B504460268136923F440533A
:10490000C1680B431361836802691343426913430F
:10491000C2691A430168CB6823F4164323F00C03E1
:104920001343CB600268536923F4407381690B43DE
:1049300053610368314A934206D002F58062934284
:1049400002D0FFF7F3FA01E0FFF700FBE369B3F5EC
:10495000004F29D00021031849411B1841F10001E3
:10496000C90041EA5371DB00181863684FEA8302FB
:104970004FEA937341F10001FBF72AFC204DA5FBA0
:1049800000325109642303FB11031B013233A5FBE1
:1049900003235B0903F0F00202EB011203F00F03A3
:1049A000216813448B6038BD0023021843EB0301D8
:1049B000121841F10001C90041EA5271D2001018E9
:1049C00041F10001626892185B41FBF701FC0C4D5C
:1049D000A5FB00325109642303FB1103DB003233D2
:1049E000A5FB03235B095A0002F4F87202EB0112E3
:1049F00003F00703216813448B60D4E700100140E3
:104A00001F85EB5158B310B5044690F83D300BB3F9
:104A1000242384F83D302268D36823F40053D36004
:104A20002046FFF767FF2268136923F49043136160
:104A30002268536923F02A0353612268D36843F440
:104A40000053D36000202064202384F83D3084F894
:104A50003E3010BD80F83C30FDF79AF8D8E70120D1
:104A60007047000082B000230193019B0133019342
:104A70000E4A934214D80369002BF6DA00230193FF
:104A8000036943F001030361019B01330193074A6A
:104A9000934208D8036913F0010FF5D1002000E01C
:104AA000032002B070470320FBE700BF400D030066
:104AB00084B010B5044603A880E80E00089B012BC3
:104AC0001FD1A36B23F48033A363E36823F484032F
:104AD00023F04003E360E36823F44013E3600F9B9B
:104AE000012B09D02046FFF7BDFF069B012B1BD0F1
:104AF000BDE8104004B07047E36843F48013E360FE
:104B0000F0E7E36843F04003E3602046FFF7AAFFC5
:104B10000C9B23B9A36B43F48033A363E5E7A36B3A
:104B200023F48033A363E0E7A36843F00603A360A4
:104B3000A36843F02003A360DAE70000022A0AD04A
:104B40000921C26822F47052C260C36843EA81231B
:104B5000C36000207047234B0B44234A93422FD954
:104B6000224B0B44224A93422CD9A1F57403A3F59E
:104B70001053204A934227D9A1F18373A3F5E74349
:104B80001D4A934222D31D4B0B441D4A93421FD909
:104B90001C4B0B441C4A93421CD31C4B0B441C4A19
:104BA000934219D3A1F1B773A3F55853194A93420D
:104BB00014D3194B0B44194A934211D20721C0E771
:104BC0000F21BEE70E21BCE70D21BAE70C21B8E7A3
:104BD0000B21B6E70A21B4E70921B2E70821B0E7C3
:104BE0000621AEE7405327FFFF340C00401E1BFF99
:104BF0003F420F007F4F120020D6130060B6E5FE43
:104C00005FE3160000D3CEFE40771B00C05BB3FE0F
:104C1000C091210020753800E05459FEE09C41000D
:104C2000836843F00103836000207047836823F0AA
:104C3000010383600020704782B000230193890143
:104C400041F020010161019B01330193054A934228
:104C500005D8036913F0200FF5D1002000E00320F0
:104C600002B07047400D030082B00023019310236F
:104C70000361019B01330193054A934205D80369FF
:104C800013F0100FF5D1002000E0032002B07047B0
:104C9000400D0300D0F800381943C0F80018002078
:104CA0007047000084B02DE9F041044607A880E871
:104CB0000E00002306E003F1400204EB8202002113
:104CC000516001330E2BF6D9119F27BBD4F804385D
:104CD00043F00203C4F80438A36B43F40013A36346
:104CE000A36B23F40023A363A36B23F48023A363A8
:104CF0000023C4F8003E04F50065D4F80038C4F879
:104D000000380C9B012B14D1099B6BB90021204664
:104D1000FFF7C0FF11E0A36B23F40013A363A36BA1
:104D200043F40023A363E3E701212046FFF7B2FF2A
:104D300003E003212046FFF7ADFF10212046FFF7D7
:104D40007BFF804608B14FF001082046FFF78CFF3B
:104D500008B14FF0010800232B616B61EB610AE0A1
:104D6000C3B94FF00060C2F8000900220A614FF693
:104D70007F328A6001330799994210D904EB4312BC
:104D800002F51061D2F800090028E9DB0020C2F822
:104D90000009EAE74FF09040C2F80009E5E7002378
:104DA0000AE0C3B14FF0904CC2F800CB0022026180
:104DB0004FF67F3282600133994211D904EB4312DE
:104DC00002F53060D2F8006B002EEADB4FF0000CE9
:104DD000C2F800CBEAE74FF0006CC2F800CBE5E781
:104DE0002B6923F480732B610023A3616FF0804350
:104DF00063610A9B1BB9A36943F01003A361A26915
:104E00000B4B1343A3610D9B1BB1A36943F0080334
:104E1000A361012F04D04046BDE8F04104B07047C3
:104E2000A36943F0804343F00403A361F3E700BFA9
:104E300000383C80D0F8083813F0060307D0022B66
:104E400007D0062B01D00F207047022070470020AA
:104E500070470220704710B591F800C04B78012BC5
:104E600023D000F5006ED0F81C380CF00F0401229E
:104E7000A24043EA0243C0F81C3800EB4C10D0F8C3
:104E8000003B13F4004F0ED1D0F8003B8A68C2F308
:104E90000A02C97842EA8142134343F0805343F443
:104EA0000043C0F8003B002010BDD0F81C280CF0D7
:104EB0000F0E03FA0EF39BB21343C0F81C3800EB3D
:104EC0004C10D0F8003913F4004FECD1D0F8003971
:104ED0008A68C2F30A02C97842EA814242EA8C5CDB
:104EE00043EA0C0343F0805343F40043C0F8003915
:104EF000D9E7000030B40B784A78012A26D000EBBD
:104F00004313D3F8002B002A52DBD0F83C480A7830
:104F100002F00F024FF0010C0CFA02F224EA0242F6
:104F2000C0F83C28D0F81C28097801F00F010CFAD1
:104F300001FC22EA0C42C0F81C28D3F8001B234ACB
:104F40000A40C3F8002B002030BC704700EB43132D
:104F5000D3F80029002A1EDBD0F83C580A7802F06A
:104F60000F02012404FA02F292B225EA0202C0F80A
:104F70003C28D0F81C28097801F00F018C40A4B21D
:104F800022EA0404C0F81C48D3F80019104A0A4069
:104F9000C3F80029D7E7D3F8002942F00062C3F82C
:104FA0000029D3F8002942F08042C3F80029D3E752
:104FB000D3F8002B42F00062C3F8002BD3F8002B8B
:104FC00042F08042C3F8002B9FE700BF0078F3EF68
:104FD000007833EC70B40B784C78012C27D000EBC0
:104FE000431000F530631C69E40CE4041C611C6987
:104FF00024F0FF5424F4C0141C614C690CB18C687B
:105000004C611C6944F400241C611C698D68C5F363
:10501000120C44EA0C041C61012A66D0D0F8003B53
:1050200043F00443C0F8003B002070BC70474C695B
:105030006CBB00EB4314D4F8105925F0FF5525F450
:10504000C015C4F81059D4F8105945F40025C4F817
:105050001059D4F81059ED0CED04C4F81059012A78
:1050600034D000EB4313D3F8002942F00442C3F8D4
:1050700000294B69002BD7D0D0F834380A7802F0D9
:105080000F0101228A401343C0F83438CCE700EB0B
:10509000431404F510642569ED0CED0425612569C0
:1050A00025F0FF5525F4C01525618D684E69AE4287
:1050B00000D94D61256945F40025256125694E69B2
:1050C000C6F3120C45EA0C052561C8E70A691AB156
:1050D00000EB4311C1F8142900EB4310D0F800296C
:1050E00042F00442C0F800299EE7CA68002A95D021
:1050F0005A6193E710B59DF8084084B903334FEA2D
:10510000930E4FF0000C08E000EB023303F58053E0
:1051100051F8044B1C600CF1010CF445F4D3002051
:1051200010BD0000F0B583B00B784C78012C33D063
:1051300000EB431303F5306CDCF81040E40CE4049E
:10514000CCF81040DCF8104024F0FF5424F4C014D4
:10515000CCF810404C69002C40F0CA80DCF81040BC
:105160008D68C5F312052C43CCF81040DCF81040D4
:1051700044F40024CCF81040012A00F0D380CA780F
:10518000012A00F0D680D3F8002B42F00442C3F885
:10519000002B002003B0F0BD4C6984BB00EB43142E
:1051A000D4F8105925F0FF5525F4C015C4F810594E
:1051B000D4F8105945F40025C4F81059D4F8105902
:1051C000ED0CED04C4F81059012A4FD000EB431345
:1051D000D3F8004944F00444C3F80049CC78012CCA
:1051E0006DD04B69002BD4D0D0F834380A7802F057
:1051F0000F0101228A401343C0F83438C9E700EB9D
:105200004314D4F81059ED0CED04C4F81059D4F837
:10521000105925F0FF5525F4C015C4F81059D4F8DD
:1052200010598E684F6907EB060C0CF1FF3CBCFB74
:10523000F6FC494E06EACC4C45EA0C05C4F8105978
:10524000D4F810594E69C6F312063543C4F8105904
:1052500004F51064CD78012DB6D1256925F0C0453F
:105260002561256945F000552561ADE70A691AB148
:1052700000EB4314C4F81429CA78012A08D000EBC3
:105280004313D3F8002942F00442C3F8002980E711
:10529000D0F8082812F4807F08D100EB4311D1F830
:1052A000002942F00052C1F80029E8E700EB431161
:1052B000D1F8002942F08052C1F80029DFE7D0F888
:1052C000084814F4807F0CD1D3F8004944F000540E
:1052D000C3F8004900928B8A0A78C968FFF70AFF71
:1052E00057E7D3F8004944F08054C3F80049F1E788
:1052F0008D682C44013CB4FBF5F4DCF810501FFA27
:1053000084FE154E06EAC4442543CCF81050DCF860
:1053100010508C680EFB04F4C4F312042C43CCF838
:10532000104029E7CA68002A3FF429AFCCF81420BE
:1053300025E7D0F8082812F4807F06D1D3F8002B97
:1053400042F00052C3F8002B1DE7D3F8002B42F0C7
:105350008052C3F8002B16E70000F81F00B583B099
:10536000844608464FEA920E02F00302002305E04D
:105370000CF58051096840F8041B01337345F7D3DD
:105380009AB10CF5805CDCF8003001934FF0000C12
:105390005FFA8CF3D900019BCB4000F8013B0CF184
:1053A000010C013A92B2002AF2D103B05DF804FB7D
:1053B0000B784A78012A14D000EB4310D0F8002B68
:1053C000002A06DB2BB1D0F8003B23F08043C0F865
:1053D000003BD0F8003B43F40013C0F8003B002032
:1053E000704700EB4310D0F80029002A06DB2BB1F0
:1053F000D0F8003923F08043C0F80039D0F80039E4
:1054000043F40013C0F80039E9E70B784A78012A21
:105410000ED000EB4310D0F8003B23F40013C0F88B
:10542000003BCB78023BDBB2012B15D90020704743
:1054300000EB4310D0F8003923F40013C0F8003912
:10544000CB78023BDBB2012BF0D8D0F8003943F027
:105450008053C0F80039E9E7D0F8003B43F08053AF
:10546000C0F8003BE2E7D0F8003823F4FE63C0F850
:105470000038D0F80038090101F4FE611943C0F882
:10548000001800207047D0F8003E23F00303C0F856
:10549000003ED0F8043823F00203C0F8043800209E
:1054A0007047D0F8003E23F00303C0F8003ED0F868
:1054B000043843F00203C0F8043800207047426902
:1054C000806910407047D0F8183800F50060C06956
:1054D0001840000C7047D0F8183800F50060C0691B
:1054E000184080B2704700EB4111D1F8082B00F54D
:1054F000006040691040704710B4D0F81048D0F8F0
:10550000343801F00F02D340DB01DBB2234300EB60
:10551000411000F51060806818405DF8044B70473A
:10552000406900F00100704738B50546C36823F0B4
:10553000C043C360012913D019BBC36843F0804343
:10554000C36000240120FCF7AFFC01342846FFF7BC
:10555000E7FF08B1312CF5D9322C14D0002038BD2A
:10556000C36843F00053C36000240120FCF79CFC97
:1055700001342846FFF7D4FF0128EDD0312CF4D9AF
:10558000EAE70120EBE70120E9E7D0F8003923F44E
:10559000FF6323F00703C0F80039D0F8043843F460
:1055A0008073C0F8043800207047000010B4046C09
:1055B000154B9C4203D9D0F8003B002B16DB00248E
:1055C000C0F8104BD0F8104B44F40024C0F8104B36
:1055D000D0F8104B44F01804C0F8104BD0F8104B22
:1055E00044F0C044C0F8104B012903D000205DF8FE
:1055F000044B7047C0F8142BD0F8003B43F08023D5
:10560000C0F8003BF2E700BF0A30544F10B5D0F8A5
:10561000BC4284B1D0F8C0327BB194F80002FF28BC
:105620000DD09B6894F8012221469847FF2384F807
:105630000032002010BD0320FCE70020FAE7002024
:10564000F8E700004323038000487047440000202F
:1056500043230380004870478800002043230380D1
:1056600000487047D80000200A2303800048704794
:10567000CC00002038B5D0F8BC5275B1044602F019
:105680009AFEC5F80C02D4F8C032DB6805F5037148
:10569000D5F804029847002038BD0320FCE710B578
:1056A000D0F8C442D0F8BC3253B301EB810200EB16
:1056B000820292694AB1C1EBC10C04EB8C04646CA8
:1056C000B2FBF4FC04FB1C2272B10022C3F81422CA
:1056D000D0F8C0221469ACB10A4603F50471D3F8BE
:1056E0000802A047002010BD01EB810300EB8303FB
:1056F00000249C612346224602F0A6FE2046F2E7E3
:105700000320F0E70020EEE7F0B583B0D0F8BC62EC
:1057100000238DF80730ADF80430002E6CD007461A
:105720000C460B7813F060052AD0202D5ED1CA8874
:10573000F2B113F0800F0FD0D0F8C0329B68314621
:1057400060789847E288072A28BF07223146384602
:1057500000F0FAFD00254CE04B7886F800328B799A
:1057600086F80132CA88314600F003FE002540E089
:10577000D0F8C0329B68002248789847002538E06E
:105780004E780B2E2ED8DFE806F006342D2D2D2D69
:105790002D2D2D2D152490F89C32DBB2032B03D038
:1057A00000F0A8FA032524E0022201A900F0CCFDB4
:1057B00035461EE090F89C32DBB2032B03D000F09C
:1057C00099FA032515E001220DF1070100F0BCFD57
:1057D0000FE090F89C32DBB2032B0AD000F08AFA7B
:1057E000032506E000F086FA032502E000F082FAC5
:1057F0000325284603B0F0BD0325FAE738B5044673
:10580000812102F001FE002525870121204602F0BA
:10581000FBFDA4F878518221204602F0F5FDA4F8A2
:105820004C50A4F84E50D4F8BC324BB1D4F8C0322E
:105830005B689847D4F8BC0202F0C8FDC4F8BC52BB
:10584000002038BD70B504464FF4077002F0BAFD71
:10585000B8B30646C4F8BC02237CBBBB4FF400734C
:1058600002228121204602F0C4FD012525874FF444
:10587000007302222946204602F0BBFDA4F87851AD
:105880001023A4F84E30082303228221204602F080
:10589000B0FD0123A4F84C30D4F8C0321B689847FF
:1058A0000023C6F81432C6F81832257C15BB4FF415
:1058B0000073D6F804220121204602F0CDFD2846CF
:1058C00070BD0023C4F8BC320225F8E74023022251
:1058D0008121204602F08DFD0125258740230222EB
:1058E0002946204602F085FDA4F878511023A4F83B
:1058F0004E30C8E74023D6F804220121204602F0AA
:10590000ABFD0025DBE719B1C0F8C01200207047DD
:1059100003207047D0F8BC322BB1C3F80812C3F88B
:1059200010220020704703207047D0F8BC321BB112
:10593000C3F80412002070470320704710B5D0F858
:10594000BC2292B1047C44B94FF40073D2F8042213
:10595000012102F081FD204610BD4023D2F804222F
:10596000012102F079FD0024F5E70324F3E798B163
:1059700008B503460020C3F8B802C3F8C002C3F854
:10598000CC0209B1C3F8B412012183F89C121A7039
:10599000184602F0C5FC08BD0320704710B582B060
:1059A0000023ADF8063061B10446C0F8B812CB6AE6
:1059B0004BB10DF106009847C4F8CC02002002B0AC
:1059C00010BD0320FBE70020F9E708B502F009FD50
:1059D00008BD08B5D0F8B83213B11B68984708BDA8
:1059E0000320FCE708B5D0F8B8320BB15B689847E4
:1059F000002008BD38B5044600F2AA25284600F06C
:105A000065F90123C4F89432B4F8B032C4F898327E
:105A100094F8AA1201F01F03012B0DD0022B10D015
:105A20002BB101F08001204602F0F6FC03E029468C
:105A3000204600F00AFB38BD2946204600F03DFB19
:105A4000F9E72946204600F06CFBF4E738B5044638
:105A50000D4641BB1346D0F89422032A01D00846D4
:105A600038BDD0F85C11D0F86021914209D890F887
:105A70009C32DBB2032B0FD0204600F091FC28466D
:105A8000EEE7891AC0F85C118A4228BF0A46194617
:105A900000F07EFC2846E3E7D0F8B8321B69002B03
:105AA000EAD09847E8E790F89C32DBB2032B01D0AC
:105AB0000020D5E7D0F8B8329B690BB19847CFE703
:105AC0000020CDE738B504460D4600294AD11346DB
:105AD000D0F89422022A05D094F8A032012B3CD0B1
